:020000040800F2
:10000000000002206909000865090008C5550008BC
:10001000650900086509000865090008000000007E
:10002000000000000000000000000000650900085A
:10003000650900080000000065090008495500082E
:1000400065090008650900086509000865090008D8
:1000500065090008650900086509000865090008C8
:100060006509000865090008650900085151000884
:100070005D510008B53E000869510008755100083F
:10008000E1F60008814600086509000865090008D6
:100090006509000865090008650900086509000888
:1000A0006509000865090008650900086509000878
:1000B0000DEB000819EB000825EB0008B546000819
:1000C00065090008C1460008650900087DE30008CD
:1000D00089E3000815F5000841F5000875F50008EA
:1000E00065090008650900080000000065090008AE
:1000F0006509000865090008650900086509000828
:10010000650900086509000831EB000895E300085F
:10011000A9F50008DDF50008650900086509000873
:100120006509000865090008B9E30008EDE3000867
:1001300015F7000865090008650900086509000849
:1001400000000000000000000000000000000000AF
:1001500065090008650900086509000811F600082E
:10016000CD46000865090008595500087D5500086E
:1001700065090008A155000865090008650900081F
:10018000650900086509000845F6000879F60008C9
:10019000A1E30008ADE3000865090008650900084F
:1001A0006509000865090008650900086509000877
:1001B000714E000865090008650900086509000816
:1001C0006509000865090008650900086509000857
:1001D0006509000865090008650900086509000847
:1001E0006509000865090008650900086509000837
:1001F0006509000865090008650900086509000827
:100200006509000865090008650900086509000816
:100210006509000865090008650900086509000806
:10022000650900086509000865090008000000006C
:10023000650900086509000800000000650900085C
:1002400065090008650900086509000865090008D6
:1002500065090008650900086509000865090008C6
:1002600065090008650900086509000865090008B6
:100270006509000865090008ADF6000800000000E7
:10028000650900086509000865090008000000000C
:080290000000000065090008F0
:1002980010B5054C237833B9044B13B10448AFF3B8
:1002A80000800123237010BD2804002400000000F2
:1002B800304C010808B5034B1BB103490348AFF3A1
:1002C800008008BD000000002C040024304C010808
:1002D800034613F8012B002AFBD1181A013870477E
:1002E80081F0004102E000BF83F0004330B54FEADF
:1002F80041044FEA430594EA050F08BF90EA020F4C
:100308001FBF54EA000C55EA020C7FEA645C7FEADE
:10031800655C00F0E2804FEA5454D4EB5555B8BF01
:100328006D420CDD2C4480EA020281EA030382EA72
:10033800000083EA010180EA020281EA0303362D04
:1003480088BF30BD11F0004F4FEA01314FF4801CD7
:100358004CEA113102D0404261EB410113F0004FE9
:100368004FEA03334CEA133302D0524263EB4303A0
:1003780094EA050F00F0A780A4F10104D5F1200E3E
:100388000DDB02FA0EFC22FA05F2801841F1000199
:1003980003FA0EF2801843FA05F359410EE0A5F16D
:1003A80020050EF1200E012A03FA0EFC28BF4CF09E
:1003B800020C43FA05F3C01851EBE37101F0004554
:1003C80007D54FF0000EDCF1000C7EEB00006EEB61
:1003D8000101B1F5801F1BD3B1F5001F0CD34908EB
:1003E8005FEA30004FEA3C0C04F101044FEA445242
:1003F80012F5800F80F09A80BCF1004F08BF5FEAC9
:10040800500C50F1000041EB045141EA050130BDA8
:100418005FEA4C0C404141EB0101013C28BFB1F5BA
:10042800801FE9D291F0000F04BF01460020B1FA05
:1004380081F308BF2033A3F10B03B3F120020CDAD8
:100448000C3208DD02F1140CC2F10C0201FA0CF0B6
:1004580021FA02F10CE002F11402D8BFC2F1200C1B
:1004680001FA02F120FA0CFCDCBF41EA0C019040D1
:10047800E41AA2BF01EB0451294330BD6FEA04041A
:100488001F3C1CDA0C340EDC04F11404C4F1200205
:1004980020FA04F001FA02F340EA030021FA04F317
:1004A80045EA030130BDC4F10C04C4F1200220FA6E
:1004B80002F001FA04F340EA0300294630BD21FAAC
:1004C80004F0294630BD94F0000F83F4801306BF72
:1004D80081F480110134013D4EE77FEA645C18BF66
:1004E8007FEA655C29D094EA050F08BF90EA020FFD
:1004F80005D054EA000C04BF1946104630BD91EAF5
:10050800030F1EBF0021002030BD5FEA545C05D1F7
:100518004000494128BF41F0004130BD14F5800436
:100528003CBF01F5801130BD01F0004545F0FE41AA
:1005380041F470014FF0000030BD7FEA645C1ABFDF
:10054800194610467FEA655C1CBF0B46024650EA16
:10055800013406BF52EA033591EA030F41F4002142
:1005680030BD00BF90F0000F04BF0021704730B5C8
:100578004FF4806404F132044FF000054FF000019D
:1005880050E700BF90F0000F04BF0021704730B55E
:100598004FF4806404F1320410F0004548BF404233
:1005A8004FF000013EE700BF42004FEAE2014FEA88
:1005B80031014FEA02701FBF12F07F4393F07F4F63
:1005C80081F06051704732F07F4208BF704793F066
:1005D8007F4F04BF41F40021704730B54FF4607479
:1005E80001F0004521F000411CE700BF50EA01027C
:1005F80008BF704730B54FF000050AE050EA010225
:1006080008BF704730B511F0004502D5404261EB94
:1006180041014FF4806404F132045FEA915C3FF4D5
:10062800D8AE4FF003025FEADC0C18BF03325FEA72
:10063800DC0C18BF033202EBDC02C2F1200300FA23
:1006480003FC20FA02F001FA03FE40EA0E0021FA48
:1006580002F11444BDE600BF53B94AB9002908BFE6
:1006680000281CBF4FF0FF314FF0FF3000F074B985
:10067800ADF1080C6DE904CE00F006F8DDF804E0F1
:10068800DDE9022304B070472DE9F047089D0446D0
:100698008E46002B4DD18A42944669D9B2FA82F22D
:1006A80052B101FA02F3C2F1200120FA01F10CFA69
:1006B80002FC41EA030E94404FEA1C48210CBEFBA1
:1006C800F8F61FFA8CF708FB16E341EA034306FB2A
:1006D80007F199420AD91CEB030306F1FF3080F0B9
:1006E8001F81994240F21C81023E63445B1AA4B206
:1006F800B3FBF8F008FB103344EA034400FB07F7A8
:10070800A7420AD91CEB040400F1FF3380F00A81E8
:10071800A74240F207816444023840EA0640E41BDD
:1007280000261DB1D4400023C5E900433146BDE889
:10073800F0878B4209D9002D00F0EF800026C5E92B
:10074800000130463146BDE8F087B3FA83F6002E43
:100758004AD18B4202D3824200F2F980841A61EBBB
:10076800030301209E46002DE0D0C5E9004EDDE7D9
:1007780002B9FFDEB2FA82F2002A40F09280A1EBC1
:100788000C014FEA1C471FFA8CFE0126200CB1FB16
:10079800F7F307FB131140EA01410EFB03F088420F
:1007A80008D91CEB010103F1FF3802D2884200F29C
:1007B800CB804346091AA4B2B1FBF7F007FB10112E
:1007C80044EA01440EFB00FEA64508D91CEB0404CC
:1007D80000F1FF3102D2A64500F2BB800846A4EB27
:1007E8000E0440EA03409CE7C6F12007B34022FA12
:1007F80007FC4CEA030C20FA07F401FA06F31C4341
:10080800F9404FEA1C4900FA06F3B1FBF9F8200C4D
:100818001FFA8CFE09FB181140EA014108FB0EF093
:10082800884202FA06F20BD91CEB010108F1FF3AE3
:1008380080F08880884240F28580A8F102086144EF
:10084800091AA4B2B1FBF9F009FB101144EA0141FD
:1008580000FB0EFE8E4508D91CEB010100F1FF34A8
:100868006CD28E456AD90238614440EA0840A0FB40
:100878000294A1EB0E01A142C846A64656D353D016
:100888005DB1B3EB080261EB0E0101FA07F722FA3A
:1008980006F3F1401F43C5E9007100263146BDE863
:1008A800F087C2F12003D8400CFA02FC21FA03F3C6
:1008B800914001434FEA1C471FFA8CFEB3FBF7F047
:1008C80007FB10360B0C43EA064300FB0EF69E426C
:1008D80004FA02F408D91CEB030300F1FF382FD205
:1008E8009E422DD9023863449B1B89B2B3FBF7F6AD
:1008F80007FB163341EA034106FB0EF38B4208D986
:100908001CEB010106F1FF3816D28B4214D9023EC6
:100918006144C91A46EA004638E72E46284605E7E4
:100928000646E3E61846F8E64B45A9D2B9EB0208B5
:1009380064EB0C0E0138A3E74646EAE7204694E745
:100948004046D1E7D0467BE7023B614432E7304678
:1009580009E76444023842E7704700BFFEE700BF7A
:100968000B480C4A904203D0121A0B4913F042FC70
:100978000A480B4A904203D0121A002113F048FC8F
:1009880005F074F813F012FC00F0ECFEFEE700BF6F
:100998000000002424040024604C010828040024DA
:1009A800D47F0024704700BF704700BF704700BF66
:1009B800704700BF704700BF704700BF704700BF57
:1009C800704700BF30B4114C20221148236801E061
:1009D800013A06D00133202BA8BF0023C15C0029AF
:1009E800F6D00C4A0C4852F823200C4D07EE902AFA
:1009F80050F823002360F8EE677A0949094B2A600A
:100A08000860C3ED007A30BC704700BF1C5000245A
:100A180020510024A0500024405100249C5200245E
:100A280044000024705200242DE9F04F0224A5B0A0
:100A380009264FF00A098DF828404FF00B088DF869
:100A480029604FF0000ABDF828300822764F0125AA
:100A58008DF824404FF0070B8DF825903846ADF8F7
:100A68000430BDF824308DF81DA08DF81C408DF899
:100A780020408DF821800799ADF800300294089B3A
:100A880002F05AFF03238DF8384007F112008DF861
:100A98002D3008228DF83960BDF838308DF8344093
:100AA8008DF83590ADF80430BDF834308DF82CA0B1
:100AB8008DF830408DF831800B99ADF800300294F4
:100AC8000C9B02F039FF8DF848408DF8496007F11A
:100AD8002400BDF8483008228DF844408DF8459030
:100AE800ADF80430BDF844308DF840408DF84180B1
:100AF8008DF83C508DF83D500F99ADF800300294B8
:100B0800109B02F019FF8DF858408DF8596007F1D5
:100B18003600BDF8583008228DF854408DF85590AD
:100B2800ADF80430BDF854308DF84CA08DF8504025
:100B38008DF851808DF84DB01399ADF800300294BE
:100B4800149B02F0F9FE8DF868408DF8696007F192
:100B58004800BDF8683008228DF85CA04FF0060AFE
:100B68008DF864408DF86590ADF80430BDF86430B8
:100B78008DF860408DF861808DF85DA01799ADF80B
:100B880000300294189B02F0D7FE8DF878408DF85B
:100B980079600822BDF8783007F15A008DF8759011
:100BA8008DF87440ADF80430BDF874308DF871805C
:100BB8008DF86C408DF86D508DF870401B99ADF82C
:100BC800003002941C9B02F0B7FE9FED180A8DF8C6
:100BD8007C508DF87DB01F9915488DED050A02F0FF
:100BE80063FE8DF880508DF881A09DED050A20994F
:100BF800104802F059FE082205238DF884508DF81C
:100C080085208DF888508DF889308DF88C508DF8B6
:100C18008D609FED090A21990848DDE9222325B056
:100C2800BDE8F04F02F0D2BD4804002400007A4429
:100C3800545200247C520024000000002450002458
:100C48000F4B00200F4A002110B50F4C18600F48B9
:100C580013F0DEFA224600210D4813F0D9FA224695
:100C680000210C4813F0D4FA224600210A4813F058
:100C7800CFFA224600210948BDE8104013F0C8BA4F
:100C88007052002400905F0100983A000060EAC0AA
:100C980000C8AFC0003075C000983AC0000000C05E
:100CA8001D4B1E491E4AD3ED007AD1ED006A92ED24
:100CB800007A77EEA67AB8EE477A10B4F4EEC77ADF
:100CC800C3ED007AF1EE10FA1DDCBDEEE77A17EEFF
:100CD800101AB8EE477A4A1C77EEC77A114B124CB5
:100CE80003EB8202114803EB8103216092ED007A45
:100CF80093ED000A5DF8044B37EE407AC0ED007AB8
:100D0800A7EE270A70479FED0A7A01220021F0EE2C
:100D1800477A83ED007AE1E74C5000242C00002448
:100D2800300000240060EAC05450002450500024D1
:100D380000000000012810B527D0022807D003289A
:100D480000F08C80042863D09FEDA10A10BD002913
:100D580053D0012900F0EA809E4BD3ED007A9E4AD9
:100D680092ED007AB8EE477AB4EEE77AF1EE10FA2F
:100D780000F19480BDEEE77A17EE101AB8EE477AC4
:100D88004A1C77EEC77A954B1AE059B3012900F04F
:100D9800B180904BD3ED007A914A92ED007AB8EE8B
:100DA800477AB4EEE77AF1EE10FA4ED4BDEEE77A60
:100DB80017EE101AB8EE477A4A1C77EEC77A894BB5
:100DC80003EB8202884803EB8103884CC0ED007A6C
:100DD80093ED000A92ED007A216037EE407AA7EE93
:100DE800270A10BD7B4B824AD3ED007A92ED007A38
:100DF80077EE877AC3ED007ACEE7764B7C4AD3ED5F
:100E0800007A92ED007A77EE877AC3ED007AA6E74A
:100E180000295BD0012900F0BF806E4BD3ED007A2A
:100E2800744A92ED007AB8EE477AB4EEE77AF1EEBA
:100E380010FA56D4BDEEE77A17EE101AB8EE477AD4
:100E48004A1C77EEC77A6C4BBAE79FED617A0122AC
:100E58000021F0EE477A83ED007AB0E781BB5D4B65
:100E6800634AD3ED007A92ED007A77EE877AC3ED84
:100E7800007A624A92ED007AB8EE477AB4EEE77AE1
:100E8800F1EE10FA13D4BDEEE77A17EE101AB8EEA9
:100E9800477A4A1C77EEC77A594B91E79FED4C7A0F
:100EA80001220021F0EE477A83ED007A6BE79FED8F
:100EB800487A01220021F0EE477A83ED007AEBE7C9
:100EC80001294ED0434BD3ED007AD2E7414B484A33
:100ED800D3ED007A92ED007A77EE877AC3ED007A47
:100EE8009EE79FED3B7A01220021F0EE477A83EDE1
:100EF800007AA8E70C3AF2EE080AB0EE000A07EE0C
:100F0800902AF8EEE77AC7EEA00A12F01DF83D4ADB
:100F1800304B92ED007AD3ED006A20EE070AC0EE5E
:100F2800077A77EEA67AC3ED007A35E707EE902ABE
:100F3800F2EE080AB0EE000AF8EEE77AC7EEA00A69
:100F480012F002F82F4A234B92ED007AD3ED006A93
:100F580020EE070AC0EE077A77EEA67AC3ED007A8C
:100F6800FDE607EE902AF2EE080AB0EE000AF8EE67
:100F7800E77AC7EEA00A11F0E7FF224A154B92ED77
:100F8800007AD3ED006A20EE070AC0EE077A77EE02
:100F9800A67AC3ED007A6CE707EE902AF2EE080A0B
:100FA800B0EE000AF8EEE77AC7EEA00A11F0CCFF1F
:100FB800144A084B92ED007AD3ED006A20EE070A36
:100FC800C0EE077A77EEA67AC3ED007A28E700BF6D
:100FD800000000009052002440000024003075C03A
:100FE8003800002400C8AFC094520024985200244E
:100FF8002C00002434000024000000C03C00002421
:1010080000983AC004000024B14B01281B682DE960
:10101800F04F07EE903A83B0AE4DB8EE675A0193A1
:101028005DD002280AD0032800F0F780042800F0D9
:10103800A58085ED005A03B0BDE8F08FF0EE457A43
:10104800A54A0026DFF8B8B2DFF8B8A2A34CDFF84B
:10105800B892DFF8B88203E001369E4200F02D8195
:10106800BDEEE77AD9ED004A17EE103AF8EE476A76
:1010780098ED007A04EB8300CBF80030B8EE476AAD
:10108800D0ED015A77EEE66A90ED007A77EEA47A11
:1010980075EEC75ACAED006AF4EEC67AC5ED007A55
:1010A800A6EEA57AF1EE10FAA2EC017A05DB019220
:1010B800FFF788FCD5ED007A019AB4EE675A884BA1
:1010C800F1EE10FAC8D1824A864B92ED005A1E60A2
:1010D800B8EE455A85ED005A03B0BDE8F08FF0EE42
:1010E800457A814F0026DFF818B2DFF818A27B4C4A
:1010F800DFF81492DFF8148203E001369E4200F014
:10110800DC80BDEEE77AD9ED004A17EE103AF8EE2A
:10111800476A98ED007A04EB8300CBF80030B8EE0C
:10112800476AD0ED015A77EEE66A90ED007A77EEDD
:10113800A47A75EEC75ACAED006AF4EEC67AC5ED10
:10114800007AA6EEA57AF1EE10FAA7EC017A03DB95
:10115800FFF738FCD5ED007AB4EE675A604BF1EE34
:1011680010FACAD15A4A614B92ED005A1E60B8EE85
:10117800455A85ED005A03B0BDE8F08FF0EE457A88
:101188005B4A0026DFF878B1DFF878A1534CDFF826
:101198007891DFF8788103E001369E4200F08D8077
:1011A800BDEEE77A98ED006AB8EE466A17EE103A97
:1011B80099ED007A06EE903A04EB8301CBF8003003
:1011C800F8EE666AD1ED015A77EEE66A77EE877A2D
:1011D80091ED007A75EEC75ACAED006AF4EEC67A48
:1011E800C5ED007AA6EEA57AF1EE10FAA2EC017A26
:1011F80005DB0192FFF7E6FBD5ED007A019AB4EE24
:10120800675A374BF1EE10FAC6D1314A394B92ED95
:10121800005A1E60B8EE455A0BE7F0EE457A364A9A
:101228000026DFF8DCB0DFF8DCA02C4CDFF8D89023
:10123800DFF8D88002E001369E423ED0BDEEE77A64
:10124800D9ED005A17EE103AF8EE476A98ED007A91
:1012580004EB8301CBF8003077EEE66AB8EE476A14
:1012680091ED007A77EEA57AD1ED015ACAED006AC0
:1012780075EEC75AF4EEC67AC5ED007AA6EEA57AE1
:10128800F1EE10FAA2EC017A05DB0192FFF79AFB66
:10129800D5ED007A019AB4EE675A114BF1EE10FAC7
:1012A800C9D10B4A154B92ED005A1E60B8EE455A4B
:1012B80085ED005A03B0BDE8F08F054B93ED005A59
:1012C800B8EE455A85ED005A03B0BDE8F08F00BF6F
:1012D8009C52002470520024003075C00060EAC09F
:1012E80000A60E004000002400C8AFC0380000244B
:1012F800000000C03400002400983AC03C000024DC
:1013080078520024745200242C0000244400002445
:1013180026480023264990ED006A264AB8EE466A18
:10132800DFED256A10B4DFED257A0133B7EE007AD8
:1013380066EEA75A06EE903A202BF8EEE66AA6EE7D
:10134800257A66EEA77A67EE867ABCEEC77AFCEE57
:10135800E77A17EE100A41F8040F17EE900A42F8E0
:10136800040FE0D14FF0FF32154801E0013B06D0F1
:101378000132202AA8BF0022815C0029F6D0114B37
:10138800114C53F82230114907EE903A104851F8A1
:101398002210F8EE677A226003600E4A0E4B5DF861
:1013A800044B1160C3ED007A704700BF3000002481
:1013B8009C5000243C510024000000000000003D27
:1013C80020510024A05000241C5000244051002427
:1013D8009C5200244400002470520024164A002322
:1013E80016481188B2F804C0042200B585B04FF041
:1013F800020EADF8041001218DF800308DF80B10A5
:1014080069468DF801308DF802308DF803E0ADF8AB
:1014180006C08DF808308DF809308DF80A308DF83F
:101428000C308DF80D2001F06BF9044801F0C8F973
:1014380005B05DF804FB00BF28420108C051002434
:10144800002210B5114604462B482DED028BB0EE54
:10145800408A01F0ADF9294B1B78002B39D0012BBC
:1014680044D000220121244801F0A2F9B5EE408AB7
:10147800F1EE10FA1ED0F7EE007AB4EE678AF1EEBC
:1014880010FA09D0F0EE007AB4EE678AF1EE10FA9D
:1014980024D0BDEC028B10BD1949174801F08EF815
:1014A800637873B117491448BDEC028BBDE810404E
:1014B80001F084B81449104801F080F82378002B13
:1014C800F0D112490C48BDEC028BBDE8104001F088
:1014D80075B80F49084801F071F8C2E70D49064888
:1014E80001F06CF8A378002BDCD1EAE70A4902483E
:1014F80001F064F8B5E700BFC05100242C52002465
:10150800A44201089C4201088C420108A04201083B
:1015180064420108B44201087842010870B52A48BB
:1015280000262A4C2A4D2DED028BB0EE408A11F090
:10153800DBFA002394ED000A2348AB602E7311F008
:1015480069FBD4ED017A9FED237A2E73F4EEC77A06
:10155800F1EE10FA33D59FED200A27EE800A11F03C
:1015680087FEF7EE006AF0EE407A30EE266A86EEE5
:10157800867A1A48C5ED007A85ED017AB0EE480AF8
:1015880011F05AF894ED020A144811F057FA94ED44
:10159800030A124811F06EFAB0EE480A104811F02A
:1015A80099FB94ED040A0E4811F01CFC94ED050A11
:1015B8000B48BDEC028BBDE8704011F077BC9FED85
:1015C800097ADFED097AD4E7485200240C00002498
:1015D80034520024C976FE3EDB0F4940B40400248F
:1015E800E051002461FA183C5F33D44210B5264C10
:1015F800F0EE407A23783BB963787BBBA378002B65
:1016080036D1B0EE670A10BD204811F0CDFA204A55
:101618009FED207A92ED006A1F4B37EE467AD3EDA4
:10162800006AD3ED027A27EE000A93ED016A1A7B6D
:10163800E0EE267A67EE867A30EE670AB0EE677AD1
:10164800A6EE807A83ED027A002AD5D0DFED137AF0
:10165800012A637840FE277A002BCFD0B0EE670AC4
:101668000F4811F0B3F8A37870EE007A002BC8D0B9
:101678000C4CB0EE670A204611F050FBD4ED0C7A02
:10168800B0EE670A10BD00BF205000244852002465
:101698000C000024CDCC8C3F345200240000000004
:1016A800B4040024E0510024244B1B6810B523B176
:1016B800012B35D0022B26D010BD214C214894EDAA
:1016C800000A11F0A7FAD4ED017A9FED1F7AF4EE23
:1016D800C77AF1EE10FA09D4DFED1C7A9FED1C0AE7
:1016E8001C4B83ED000AC3ED017A10BD9FED1A0A69
:1016F80027EE800A11F0BCFDB7EE007A70EE076A9B
:10170800C7EE267AECE70E4C144894ED040A11F063
:1017180069FB94ED050A1148BDE8104011F0C6BBFD
:10172800074C0F4894ED020A11F088F994ED030A6A
:101738000B48BDE8104011F09DB900BF18500024B7
:101748000C00002448520024C976FE3E61FA183C79
:101758005F33D44234520024DB0F4940E051002467
:10176800B404002410B5002182B0194800F084FDAB
:101778000421174800F0A8FC0321154800F084FC58
:10178800134800F09DFC8DED010AFFF727FE114C70
:10179800FFF74AF9104904230622104802F006F917
:1017A8000E4802F011FBFFF74BFA9DED010AFFF717
:1017B800B5FE0B49064800F063FCD4ED007A0948F1
:1017C800B8EEE70AFFF73CFE322003F069FFF4E7C2
:1017D8005850002418500024480400247050002455
:1017E800D51D00082050002438B5454C454D637878
:1017F800002B6FD06B78002B62D0434B1B7863B9FA
:10180800424B03F1200101E08B4276D013F8012B03
:10181800002AF9D03E4B01221A7023798BB12B791B
:101828007BB90121394B3B4A116003F1200101E0EA
:101838008B4206D013F8012B002AF9D00120FFF7BC
:10184800E3FB63798BB16B797BB902212F4B314A6A
:10185800116003F1200101E0994206D013F8012B31
:10186800002AF9D00220FFF7CFFBA3798BB1AB791F
:101878007BB90321254B274A116003F1200101E0C0
:101888008B4206D013F8012B002AF9D00320FFF76A
:10189800BBFBE3799BB1EB798BB91C4B04201D4A48
:1018A80003F12001106001E0994208D013F8012BE0
:1018B800002AF9D00420BDE83840FFF7A5BB38BDA1
:1018C800154A012111704FF07E51144A1160144AD3
:1018D800136092E76A78002A8FD00F49104A0B707C
:1018E800104912680B6010490C4B0A6000211960FE
:1018F8000E4B1A60FFF70CFD7FE7054B1A708CE75B
:1019080010500024685200246452002420510024FE
:101918009C500024080000249D500024A05200245C
:10192800DC510024A852002430000024A4520024D2
:101938001C4B1B7863B91C4B03F1200101E08B425F
:101948002CD013F8012B002AF9D0184B01221A7059
:10195800174B1A7912B1174A1279DAB15A7912B1BA
:10196800144A527992B19A7912B1124A92794AB1CB
:10197800DB7933B10F4BDB791BB90F4B04221A60AB
:10198800704770470C4A03211160F1E70A4A0221A7
:101998001160E8E7084A01211160DFE7034B1A707C
:1019A800D6E700BF645200242051002444040024D8
:1019B80010500024685200240800002438B5304D27
:1019C8000024E2B205212F48013402F013FAF6EEA2
:1019D800007AB4EEE70AF1EE10FA4CBF01230023B7
:1019E800082C05F8013FECD1274CA378D3B1274B3D
:1019F8009A78BAB9264913460A702278002A2DD057
:101A080022490978A9B103B3012B35D0214B2249CA
:101A180003F1080001E011F8012B03F8012F8342BC
:101A2800F9D138BDE378A3B1184BDB788BB9012223
:101A3800E0E71A490878D0B90120194D087000214B
:101A4800296018490870002BDED1FFF7CDFE2278F7
:101A5800DCE70F4B22781B78002AD1D11049D1ED51
:101A6800007AF5EE407AF1EE10FACCD10B4900205D
:101A780008700C490870C6E7FFF75AFF2278C5E7D7
:101A88000F50002470500024105000246852002485
:101A98002C52002467520024115000249C5000242A
:101AA8004C5000246452002438B5334D00240121E1
:101AB800E2B232480C4402F09DF9F6EE007AB4EE38
:101AC800E70AF1EE10FA4CBF01230023082C05F8B1
:101AD800013FECD12A4D0024E2B20221274801340B
:101AE80002F088F9F6EE007AB4EEE70AF1EE10FAA1
:101AF8004CBF01230023082C05F8013BECD1214DF4
:101B08000024E2B203211D48013402F073F9F6EE15
:101B1800007AB4EEE70AF1EE10FA4CBF0123002375
:101B2800082C05F8013BECD1174D0024E2B2042142
:101B38001248013402F05EF9F6EE007AB4EEE70AD4
:101B4800F1EE10FA4CBF01230023082C05F8013BE5
:101B5800ECD10E4A002302E00133202B06D012F804
:101B6800011B0029F8D00A4A136038BD4FF0FF3333
:101B7800074A136038BD00BF1F510024705000246D
:101B880028510024305100243851002420510024C9
:101B98003052002410B5804C2DED028BFFF784FFE6
:101BA800204601F043FE2379002B47D0636A07EEF5
:101BB800903AF8EEE77AF5EE407AF1EE10FA3DD079
:101BC80076490A689B1800F18B80022B40F3B3809A
:101BD8000022237B0A603BB1A37C7F2B04D1704A8F
:101BE800137883F001031370022200216D4802F07C
:101BF80001F96D4CDFED6D7AB7EE007A062200210F
:101C080030EE270A674880FE270A80FE470A84EDDF
:101C1800000A02F0EFF89FED667A20EE000A9FEDC9
:101C2800656AF0EE477ADFED646AE0EE067AC7FE91
:101C3800877AC7FEE67AC4ED017A11E0574B1B6834
:101C4800227B3AB1A27C7F2A04D15549CA5C82F032
:101C58000102CA54002BC7D0012B6ED0022B44D0EE
:101C6800DFED528A032200214E4802F0C3F8B0EE9D
:101C7800008AB0EE687A514B072200214948A0EE4D
:101C8800087A87FE287A87FE487A83ED007A02F080
:101C9800B1F8F0EE687A0022494B42481146E0EE6E
:101CA800087AC7FEA87AC7FEC87AC3ED007A02F0A0
:101CB800A1F8B6EE007A434BF7EE086A20EE000A68
:101CC800F0EE477AE0EE267AC7FE877AC7FEC87A32
:101CD800BDEC028BBDE81040C3ED007AFFF7E4BC11
:101CE8000222237B0A60002B4DD19FED308A02220D
:101CF80000212C4802F07EF8B0EE487A20EE000A67
:101D0800DFED317A284C062200212648A0EE277AFA
:101D180087FE087A87FE677A84ED047A02F06AF80B
:101D2800B7EE007A30EE080AC0FE087AC7FEC77A16
:101D3800C4ED057A94E70B6082E79FED1C8A0222C6
:101D4800194C0021174802F055F8B7EE007A30EE2A
:101D5800080A0622C0FE087A00211248C7FEC77A80
:101D6800C4ED027A02F046F8B2EE047A20EE000AD8
:101D7800F0EE487AE0EE077AC7FE887AC7FEC77A9F
:101D8800C4ED037A6CE7A37C7F2BAED1044A937829
:101D980083F001039370A8E724500024185000240E
:101DA80020500024705000240C0000240000000083
:101DB8000AD7233CE27A943E9A99993E2800002457
:101DC800240000242C00002400409C452DE9F04FFD
:101DD800144683B006460F460192FFF7DBFE002C3F
:101DE80000F0BD804FF00009DFF8D081614CDFF8CA
:101DF800D0B1DFF8D0A11BE098ED000A37EE800AD9
:101E080009F1010984ED000AFFF7F0FBDAED007A29
:101E18003A6820EE270A019B2A444B4584ED000AC4
:101E280082ED000A7A682A4482ED000A00F0978061
:101E380000224FEA8905C8F800202260FFF7BEFD9E
:101E48003268B6EE007A9BED000A02EB89024A4B33
:101E5800D2ED007A7268197802EB8902474BD2ED0D
:101E6800006A77EEA67A67EE877A67EE807AC3ED26
:101E7800007A61B1424B43481A68434900EB82003B
:101E880001321A600A68C0ED007A01320A603F4BDD
:101E98001A788AB93E4A1278002AADD03D4A3E499E
:101EA8003E48126809780068FEF744FF334B88ED16
:101EB800000AD3ED007AA1E7394A02F1200001E0D7
:101EC80090424FD012F8013B002BF9D0304A1278DB
:101ED800002AE3D13348344AD0ED007A92ED007AF3
:101EE800FDEEE76A274937EE877A16EE902AF8EE74
:101EF800666A80ED007A01EB820C2C4977EEE67A6F
:101F08009CED016ADCED006A36EE666AE7EE866AE9
:101F1800C8ED006AD1ED006A2549F8EE666A0A60E4
:101F2800244AB4EEE67AC2ED007AF1EE10FA04DB48
:101F3800FEF748FD1B4890ED007A1F4A0F4BD2ED83
:101F4800007A98ED000AF8EE677AF4EEC77AD3EDD6
:101F5800007AF1EE10FA44BF002202604EE703B0A7
:101F6800BDE8F08FFEF79CFE044B88ED000AD3ED28
:101F7800007A43E7445200249D50002498500024DE
:101F8800A85200240060EAC0DC5100249C500024C0
:101F980044040024305200242C5200240800002459
:101FA80020510024705200242C00002444000024F6
:101FB8007852002474520024300000248C520024EB
:101FC800240000242800002438B51B4C1B4D224651
:101FD8001B491C4810F0B0FF224629461A4810F049
:101FE800ABFF22462946194810F0A6FF2246184999
:101FF800184810F0A1FF22461749184810F09CFF16
:1020080022461749174810F097FF224616491748E5
:1020180010F092FF22461649164810F08DFF002353
:10202800154822461549036043610362C363BDE84E
:10203800384010F081BF00BF00000024AD0900083F
:10204800B109000824500024545200247C52002472
:10205800B5090008C0510024C1090008B4040024CF
:10206800C509000848520024C90900083452002450
:10207800BD090008E051002458500024B90900089F
:10208800143001F06FBB00BF38B500F114050446E9
:102098002DED028B284601F021FB284601F01AFBA2
:1020A8002846B0EE408A01F003FBD0ED007AF8EE46
:1020B800677A88EE277ABDEC028B84ED0E7A38BDFC
:1020C800143001F007BB00BF38B500F11405044611
:1020D8002DED028B284601F0EFFA284601F0FAFAB6
:1020E8002846B0EE408A01F0E3FAD0ED007AF8EE27
:1020F800677A88EE277ABDEC028B84ED0E7A38BDBC
:1021080010B540F203338EB000244FF60B7240F244
:102118000341ADF8083009A80123ADF81020ADF847
:1021280024202246ADF80C100094029907940C94D0
:10213800CDE90544CDE90A4401F064FF04A8012370
:1021480022460399009401F05DFF09A802F040F8C7
:1021580010B901200EB010BD04A802F039F8A04251
:102168000CBF022020460EB010BD00BF2DE9F04183
:1021780003239AB0012700240646CDE914373B4BC8
:10218800CDE9104340F20453CDE91647ADF8483085
:10219800FFF7B6FFB842054625D0022845D040F6DD
:1021A8000132334B0DF12C081894ADF82C200B9804
:1021B8001997CDF84A3000F0E3F810A906F13C0071
:1021C80003F04EF8302003224FF07E5341460D9322
:1021D8000E93CDE90B02F26B06F1140001F030FA10
:1021E8001AB0BDE8F0811023214A06A906908DF89F
:1021F80028300DF12C081F4BCDF84A200793029484
:10220800CDE91804CDE9080402A802F061FA082310
:10221800029A03A94046ADF80C508DF80E4004957B
:1022280005930B9400F0ECF8C7E700200121104B50
:102238000DF12C083A460094CDF84A304FF60B734E
:102248000C94ADF82C302346CDE9180140F6013145
:102258004046ADF818100699CDE90D4401F0D2FEBC
:102268002146404601F0C0FFA7E700BF040204046E
:10227800040604030704010B2DE9F04704462DED7D
:10228800028B82B000294DD0012140F201120023B7
:102298000091ADF804208DF80630364A0127364BF8
:1022A80004F10409354904F12908626040F2027218
:1022B800A36040F60663E16004F1250AA4F825202E
:1022C800A4F82930278284F8277084F82B7003F04B
:1022D80083FB054603F0E6F96946064650BB4DB355
:1022E80004F130008DF8067003F0FEFA072D3CD19A
:1022F80004F114052046FFF739FF284601F0EAF9F2
:102308002846B0EE408A01F0D3F9D0ED007AF8EE15
:10231800677A88EE277A84ED0E7A02B0BDEC028BDC
:10232800BDE8F08740F2011300918DF80610ADF872
:102338000430B2E704F1300003F0D6FA072D11D0CB
:102348004946204602F00CFC0EB9002DD0D150466B
:1023580001F054FF404601F051FF04F1120000F073
:102368007FFAC5E7002EF2D1C2E74946204602F0BF
:10237800F7FBBDE70508050905070506050A060672
:1023880010B584B003460124ADF8040003A8ADF8E5
:102398000C30ADF80E4001F031FF214603A802F0E1
:1023A80017F8204603F07CF9002103A802F010F882
:1023B800204603F075F9214603A802F009F804B095
:1023C80010BD00BF10B5C2F3002384B00C46017CD9
:1023D8008DF80D2043EA4402FA2402238DF80C20DC
:1023E80003AA009402F00AFA18B10124204604B0A6
:1023F80010BD04460A2003F053F9204604B010BD6E
:10240800034670B543F8042B044684B007C983E833
:102418000700A37983B91A210B461E22FA252374D3
:102428002046ADF80C20022303AA009502F0E6F935
:1024380028B1012004B070BD1B210B46EDE70A202E
:1024480003F02EF94FF4B85200950223ADF80C2092
:10245800204603AA217C02F0D1F90028E9D10A20FC
:1024680003F01EF941F2027200950223ADF80C2028
:10247800204603AA217C02F0C1F90028D9D10A20FC
:1024880003F00EF9042200950223ADF80C20204633
:1024980003AA217C02F0B2F90028CAD10A2003F06D
:1024A800FFF8062200950223ADF80C20204603AA67
:1024B800217C02F0A3F90028BBD10A2003F0F0F830
:1024C80041F2082200950223ADF80C20204603AA09
:1024D800217C02F093F90028ABD10A20064603F0CC
:1024E800DFF80095022303AA217C2046ADF80C6092
:1024F80002F084F900289CD1304603F0D1F8009509
:1025080022790C232046002A8DF80C3003AA4FF0BC
:10251800020314BF622142218DF80D10217C02F0C4
:102528006DF9002885D1304603F0BAF82279D4E94C
:1025380002310B43DBB20AB943F0400362790AB1B6
:1025480043F020030E22FA258DF80D302046009521
:1025580002238DF80C2003AA217C02F04FF90028F1
:102568007FF467AF0A2003F09BF81022009502233E
:10257800ADF80C20204603AA217C02F03FF9002880
:102588007FF457AF0A2003F08BF81221009502233D
:10259800ADF80C1003AA217C204602F02FF9002880
:1025A8007FF447AF0A2003F07BF801220921204677
:1025B800FFF708FF003818BF01203BE72DE9F04F6F
:1025C80000278846821C861DFCB22DED028B83B045
:1025D80008EE102A01904046FDF77AFEA04247D93E
:1025E800019B012118F8044018EE100A03F10A05AE
:1025F8004FF0000A4FEA141BA94601F0E9FE4BFA16
:102608000AF10AF1010A484609F1040901F0010139
:1026180001F0DEFEBAF1040FF1D10121304604F0D9
:102628000F0B002401F0D4FE012003F039F82146F5
:10263800304601F0CDFE4BFA04F10134284604354A
:1026480001F0010101F0C4FE042CF4D1012130464F
:10265800013701F0BDFE012003F022F800213046C9
:10266800FCB201F0B5FE4046FDF732FEA042B7D8F5
:1026780003B0BDEC028BBDE8F08F00BF2DE9F84335
:102688000F4600F10A05002400214FEA17192E46CB
:102698008046023001F09CFE49FA04F101343046CC
:1026A800043601F0010101F093FE042CF4D108F185
:1026B8000608012107F00F070024404601F088FEB4
:1026C800012002F0EDFF0021404601F081FE47FAAB
:1026D80004F101342846043501F0010101F078FEC7
:1026E800042CF4D10121404601F072FE012002F0D1
:1026F800D7FF40460021BDE8F84301F069BE00BF9E
:1027080070B54B88044601250E4663800230A580CB
:1027180001F074FDB388A01D2581E38001F06EFDF2
:10272800F38804F10A00A581638101F067FD33890C
:1027380004F10E002582E38101F060FD738904F144
:102748001200A582638201F059FDB38904F11600D5
:102758002583E38201F052FD33882846238002F066
:102768009FFF20463321FFF789FF20463221FFF7DC
:1027780085FF28212046FFF781FF284602F090FFB9
:1027880029462046FFF77AFF227863782046002AF8
:1027980014BF0E210C211943FFF770FF20460621B4
:1027A800FFF76CFF2846BDE8704002F079BF00BF14
:1027B80001290CBFC02180211144C9B2FFF75EBFB7
:1027C8000121FFF75BBF00BFF0B5102387B0234C92
:1027D800012200250126002702A920460195CDE9FE
:1027E80002234FF48052CDE9046709F0ADFE64205E
:1027F80003F098FB02A94FF480522046CDE9046704
:1028080002261027CDE9026709F09EFE0322102355
:1028180002A92046CDE9022300230422CDE904239E
:102828004FF4805209F090FE40F23223042202A9AC
:10283800019310232046CDE90223019A0123059232
:102848004FF48052049309F07FFE40F606012046BB
:1028580009F09AFE284607B0F0BD00BFB452002424
:102868001C4B00221C494FF0400C30B5054689B07E
:102878000220596007219A601A620124DA620A224A
:102888004FF4006EDC6006922022CDE9000104209E
:102898000821CDE9020103201021CDE90401082017
:1028A8006946C3E904024FF4C072181DC3E906C2A1
:1028B8004FF48052C3E909E209F01CFE38B92846F2
:1028C800FFF782FF003818BF012009B030BD20464D
:1028D80009B030BDB052002440410052614A002185
:1028E800D0B513688EB00A91002B40F0B9805E4BCA
:1028F80001214FF683700C2411600221D3F8D420F3
:102908000026032742F48052C3F8D420D3F8D420F9
:1029180002F480520092009AD3F8E02042F01002AC
:10292800C3F8E020D3F8E02002F010020192019AE7
:10293800D3F8E02042F04002C3F8E020D3F8E020CA
:1029480002F040020292029AD3F8E02042F0080214
:10295800C3F8E020D3F8E02002F008020392039ABB
:10296800D3F8E02042F48072C3F8E020D3F8E020E6
:1029780002F480720492049AD3F8E02042F08002B4
:10298800C3F8E020D3F8E02002F080020592059A0F
:10299800D3F8E02042F02002C3F8E020D3F8E0208A
:1029A80002F020020692069AD3F8E02042F00402D0
:1029B800C3F8E020D3F8E0300C9403F00403079345
:1029C8000323079A0B93CDE9080108A9274805F0C6
:1029D8002FF948F23712022308A925480C94CDE9AB
:1029E8000823CDE90A6705F023F94CF203720223A4
:1029F80008A920480C94CDE90823CDE90A6705F019
:102A080017F940F2FF62022308A91B480C94CDE98C
:102A18000823CDE90A6705F00BF94FF60C7202237B
:102A280008A916480C94CDE90823CDE90A6705F0F2
:102A3800FFF84FF63F02022308A911480C94CDE98C
:102A48000823CDE90A6705F0F3F82022022308A934
:102A58000A480C94CDE90A67CDE9082305F0E8F89F
:102A68000EB0D0BDAC5200240044025800100258E9
:102A780000180258000C025800200258001C025886
:102A8800001402582DE9F04FDFF8108406460D4671
:102A9800144608F118002DED028B89B000AF02F042
:102AA800D7FCD8F8183073B3D8F81C30D8F804908D
:102AB800002B43690BBF4FF0080A4FF0100A4FF084
:102AC800020B4FF0040BB9F1000F2AD0A200EA461E
:102AD800012B02F1070222F00702ADEB020D684656
:102AE800ADEB020D694600F03F81022B00F0D68065
:102AF800002B6FD02246C847D5462437BD46BDECCB
:102B0800028BBDE8F08FD8F81C30002BF5D0D8F830
:102B180004904FF0080A4FF0020B4369B9F1000F17
:102B2800D4D1FB61D8F80030BB61002BE5D0D54883
:102B380002F000FD6B46BBF1020F786108EE103A17
:102B4800FB6900F083816A465146A2EBC4029546B0
:102B58006200EA46B2FBFBF2AAEBC40085460AEB28
:102B68008200EE46F861ADEB010DF8690EEB820CC0
:102B7800C7F810C0EC46ADEB010D00EB8201CCF8B4
:102B88000400CCF8081001EB82013869E946CCF85A
:102B98000C1000EB8201CCF800A001EB8202C9E91D
:102BA80000E0C9E90212012B00F06483022B00F057
:102BB8006C82002B00F08081620849466046BB6940
:102BC800984718EE103A24379D46BD46BDEC028B57
:102BD800BDE8F08F002C8DD01A46D8ED0C6A9FED19
:102BE800B27A8446331D36F922E00CF1080C07EE60
:102BF80090EA33F922E00232F8EEE77A944267EE7F
:102C0800877A67EEA67A4CED027A07EE90EAF8EE3C
:102C1800E77A67EE877A67EEA67A4CED017AE2D812
:102C2800F9612246C847984ED8ED0D6A0020F96927
:102C38002B1D9FED9E7A9FED9E6ADFED9E5A22E046
:102C4800F4EEC67AF1EE10FAC0F2C88447F6FE72C6
:102C5800D1ED017A45F8202066EEA77AF4EEC77A1E
:102C6800F1EE10FA40F2F080F4EEC67AF1EE10FAC6
:102C7800C0F2D58447F6FE7243F8202002300831AE
:102C880084427FF639AFD1ED007A66EEA77AF4EE8A
:102C9800C77AF1EE10FAD3D83246D9E7002C3FF4C0
:102CA80029AFD8ED0C6A84469FED787A0022331D4F
:102CB8008E4656F822100CF1080C07EE901A53F8BD
:102CC80022100232F8EEE77A944267EE877A67EECE
:102CD800A67A4CED027A07EE901AF8EEE77A67EEDC
:102CE800877A67EEA67A4CED017AE2D871462246D9
:102CF800C7F81CE0C847664ED8ED0D6A0020F96990
:102D08002B1D9FED6A7A9FED6A6ADFF894C120E077
:102D1800F4EEC67AF1EE10FAC0F279843246D1EDBB
:102D2800017A45F8202066EEA77AF4EEC77AF1EE2C
:102D380010FA40F28780F4EEC67AF1EE10FAC0F28B
:102D48005E84324643F820200230083184427FF600
:102D5800D3AED1ED007A66EEA77AF4EEC77AF1EE3B
:102D680010FAD5D86246DAE7002C3FF4C3AED8EDA6
:102D78000C6A86469FED477A4FF0000C331D56F8D3
:102D88002C200EF1080E82F40002A2F5000207EED4
:102D9800902A53F82C200CF1020CF8EEE77A82F412
:102DA80000026445A2F5000267EE877A67EEA67A0C
:102DB8004EED027A07EE902AF8EEE77A67EE877A08
:102DC80067EEA67A4EED017AD9D8F9612246C8474E
:102DD800314ED8ED0D6A0020F9692B1D9FED337A2D
:102DE8009FED336ADFF8BCC01FE0F4EEC67AF1EE5F
:102DF80010FAC0F2FC833246D1ED017A45F8202062
:102E080066EEA77AF4EEC77AF1EE10FA18D9F4EE66
:102E1800C67AF1EE10FAC0F2DA83324643F820207F
:102E28000230083184427FF667AED1ED007A66EE53
:102E3800A77AF4EEC77AF1EE10FAD6D86246DBE745
:102E48006246EBE762467DE7324615E7A100D646C3
:102E58006208073121F00701ADEB010DEA46ADEB41
:102E6800010D6946ADEB0E0D0AEB8200EC46ADEBA9
:102E78000E0D01EB8202F861E946CCE900A0C9E930
:102E8800001290E6045300240280FFFF0000003087
:102E98000082FF7F0000003482FF7F00E852002498
:102EA800007E00807E0080FF0000003804FF7FBFA6
:102EB80004FF7F3F00FEFF46002C00F0C982BBF1F3
:102EC800020FD8F8242000F0FA827969C7F8049034
:102ED80002EB810E5FED0C5A8A00DCF808100EF147
:102EE80004007A611A46DCF80C303B61331DD7F8D0
:102EF80010903D61FD69C7E902CB8C46834636F9DF
:102F08002210D8ED0C7A06EE101A33F9221006EECC
:102F1800901A3EF92210B8EEC66A07EE101AF8EEBB
:102F2800E66A3BF92210B8EEC77A26EE256A66EE05
:102F3800A56A27EE257A26EE276A66EEA76A27EEA7
:102F4800277A07EE901A51080232F8EEE77A0AEB70
:102F58008100944280ED006A05EB810067EEA57A56
:102F6800C0ED006A0CEB810009EB810180ED007A6D
:102F780098ED0C7A67EE877AC1ED007ABFD8D7F85A
:102F880004903D69D7E902CB60466208BB694946AF
:102F98009847D8F82C307A69D8ED0D6A1A441FED95
:102FA8003D7A1FED3D6A2B1D904602F1040A5FED44
:102FB8003F5A0022A84ED9E900EC51E0F4EEC67A57
:102FC800F1EE10FAC0F2C78247F6FE7045F822000B
:102FD8000CEB0100D0ED007A66EEA77AF4EEC77A22
:102FE800F1EE10FA4BD9F4EEC67AF1EE10FAC0F20F
:102FF800BA8247F6FE70BBF1020F43F822002BD0CD
:10300800D9F808000844D0ED007A66EEA77AF4EE05
:10301800C77AF1EE10FA36D9F4EEC67AF1EE10FA64
:10302800C0F2CD8247F6FE7048F82200D9F80C00AD
:103038000144D1ED007A66EEA77AF4EEC77AF1EE94
:1030480010FA1ED9F4EEC67AF1EE10FAC0F2AF8289
:1030580047F6FE714AF82210023294427FF6B1AD6B
:1030680051080EEB81008900D0ED007A66EEA77A50
:10307800F4EEC77AF1EE10FAA0D83046A6E730464B
:10308800B9E73146E6E73046CEE7002C00F0E081AC
:10309800BBF1020FD8F8243000F0E1817A69DCF83E
:1030A800081003EB820EC7F804909300DFED6B5A0B
:1030B8000EF1040000227B61DCF80C303B61331D0B
:1030C800D7F810903D61FD69C7E902CB8C4683466D
:1030D80056F82210D8ED0C7A07EE101A53F8221081
:1030E800B8EEC76A07EE101A5EF82210F8EEC76A43
:1030F80007EE101A26EE256A5BF82210B8EEC77A9A
:1031080066EEA56A26EE276A27EE257A66EEA76A96
:1031180027EE277A07EE901A51080232F8EEE77A7E
:103128000AEB8100944280ED006A05EB810067EEAE
:10313800A57AC0ED006A0CEB810009EB810180EDF6
:10314800007A98ED0C7A67EE877AC1ED007ABFD8DD
:10315800D7F804903D69D7E902CB60466208BB699D
:1031680049469847D8F82C307A69D8ED0D6A1A4440
:103178009FED3E7A9FED3E6A131D9246DFF8E4C04C
:103188000022FB612B1D364ED9E9008E4EE0F4EE8D
:10319800C67AF1EE10FAC0F2FC81304645F82200FA
:1031A8000EEB0100D0ED007A66EEA77AF4EEC77A4E
:1031B800F1EE10FA49D9F4EEC67AF1EE10FAC0F23F
:1031C800EF813046BBF1020F43F822002AD0D9F82C
:1031D80008000844D0ED007A66EEA77AF4EEC77AC4
:1031E800F1EE10FA35D9F4EEC67AF1EE10FAC0F223
:1031F800C98130464AF82200D9F80C000144D1EDC3
:10320800007A66EEA77AF4EEC77AF1EE10FA1ED9C4
:10321800F4EEC67AF1EE10FAC0F2AD813146F869E3
:1032280040F82210023294427FF6CBAC510808EBEA
:1032380081008900D0ED007A66EEA77AF4EEC77AAD
:10324800F1EE10FAA3D86046A8E76046BAE76146EF
:10325800E5E76046CEE700BF0280FFFF00000030D0
:103268000082FF7F007E00800000003404FF7FBFE3
:1032780004FF7F3F002C00F0EB807A690021D8F82A
:103288002430C7F8109003EB820ED7F81C909300F7
:10329800FD610EF104021FED0C6A7B61331D1546BA
:1032A80056F821204808D8ED0C6ABBF1020F82F4C9
:1032B8000002A2F5000207EE902A53F8212082F4BA
:1032C8000002B8EEE77AA2F5000227EE067A07EECA
:1032D800902A0AEB8002F8EEE77A27EE267A67EE64
:1032E800867A82ED007A09EB80024FEA800067EE69
:1032F800A67AC2ED007A27D05EF8212082F4000277
:10330800A2F5000207EE902A55F8212082F4000267
:10331800B8EEE77AA2F5000227EE067A07EE902AC1
:10332800DCF80820F8EEE77A024427EE267A67EE02
:10333800867A82ED007A98ED0C7ADCF80C2067EE3C
:10334800877A0244C2ED007A02318C42A8D8D7F8B5
:10335800109060466208BB694946FD699847D8F8ED
:103368002C307A69D8ED0D6A1A441FED407A1FEDAA
:10337800406A131D9246DFF8C4C20022FB612B1D70
:10338800AB4ED9E9008E4EE0F4EEC67AF1EE10FAB3
:10339800C0F2C580304645F822000EEB0100D0EDA2
:1033A800007A66EEA77AF4EEC77AF1EE10FA49D9F8
:1033B800F4EEC67AF1EE10FAC0F2BF803046BBF1E7
:1033C800020F43F822002AD0D9F808000844D0EDAB
:1033D800007A66EEA77AF4EEC77AF1EE10FA35D9DC
:1033E800F4EEC67AF1EE10FAC0F2AE8030464AF832
:1033F8002200D9F80C000144D1ED007A66EEA77AD4
:10340800F4EEC77AF1EE10FA1ED9F4EEC67AF1EEB0
:1034180010FAC0F28B803146F86940F82210023267
:1034280094427FF6CEAB510808EB81008900D0EDBD
:10343800007A66EEA77AF4EEC77AF1EE10FAA3D80E
:103448006046A8E76046BAE76146E5E76046CEE72A
:10345800224649466046BB699847FFF7B2BBC7F8A2
:1034680010B0002298ED0C6A331DDFED726AD7F8B0
:103478001CB0786956F8221007EE901A53F82210FB
:10348800B8EEE77A07EE901A51080232F8EEE77ABA
:1034980027EE267A0AEB810E94420BEB810167EE48
:1034A800A67A27EE067A67EE867A8EED007AC1ED67
:1034B800007ADFD88300D7F810B07B614DE61A4652
:1034C800C7F810B098ED0C6A331DDFED5B6AD7F8CA
:1034D8001CB0786936F9221007EE101A33F9221059
:1034E80007EE901AB8EEC77A51080232F8EEE77A7A
:1034F80027EE267A0AEB810E94420BEB810167EEE8
:10350800A67A27EE067A67EE867A8EED007AC1ED06
:10351800007ADFD88300D7F810B07B6134E5F0EE8D
:10352800675AFEEEE45A15EE900A34E7F0EE675A51
:10353800FEEEE45A15EE901A6EE7F0EE675AFEEECC
:10354800E45A15EE900A3AE7F0EE675AFEEEE45AAE
:1035580015EE900A4BE767EEA57AFDEEE77A17EECF
:10356800900A00B232E567EEA57AFDEEE77A17EE2B
:10357800900A00B23FE5F0EE675AFEEEE05A15EE0B
:10358800901A4CE6F0EE675AFEEEE05A15EE900AF5
:1035980030E6F0EE675AFEEEE05A15EE900AFDE5C9
:1035A800F0EE675AFEEEE05A15EE900A0AE667EE6C
:1035B800A57AFDEEE77A17EE901A09B24AE567EEAA
:1035C800A57AFDEEE77A17EE900A00B22CE5F0EE48
:1035D800675AFEEEE45A15EE902A1FE467EEA57AC4
:1035E800FDEEE77A17EE902A12B2FFF731BBF0EE44
:1035F800675AFEEEE45A15EE902AFFF7FDBBF0EE8F
:10360800675AFEEEE05A15EE902AFFF79BBBF0EEE4
:10361800675AFEEEE05A15EE902AFFF780BB67EE78
:10362800A57AFDEEE77A17EE902A12B2FFF724BBCF
:1036380082FF7F0000000030000000387E0080FF1D
:1036480030B5184C154685B0046004F1080EEC46F8
:103658000FC98EE80F00D4ED047AF5EEC07A8CE835
:103668000F00F1EE10FA1ADDB7EE006A94ED057A54
:1036780027EE277AC6EE276A84ED0D7AC4ED0C6A28
:103688006DB1204640F8185F01F0E2FE0649036973
:103698000020064A2162A262E36005B030BD012025
:1036A80005B030BDE8520024002000300000003092
:1036B80000680830704700BFB1F5807F03680A468C
:1036C80028BF4FF48072B1F5807F9A6094BF0020C4
:1036D800012070470068183001F01ABF70B50468FF
:1036E8008AB0A369E160CBB104F11805284601F05E
:1036F800AFFE8446EE46E668BCE80F00AEE80F0071
:10370800BCE80F00AEE80F009CE803008EE8030059
:1037180069462846049601F0A3FDF8B9E069D8B1D6
:1037280004F11C05284601F093FE8446EE46E46841
:10373800BCE80F00AEE80F00BCE80F00AEE80F00D1
:103748009CE803008EE8030069462846049401F0CB
:1037580087FD003818BF01200AB070BD01200AB0EB
:1037680070BD00BF30B5046883B00D46E3694BB146
:10377800A3680020E26A616A9B00009004F11C00C3
:1037880001F068FEA3680748A26A9B00216A0090BE
:1037980004F1180001F05EFE0020C4E9005003B0F7
:1037A80030BD00BF8D2A000810B4074B4FF07E5182
:1037B80030240022032019619C60D8605DF8044B16
:1037C8005961C3E906227047E852002430B585B034
:1037D80004460025ADF80C10ADF80820ADF804300B
:1037E80001F05CFFBDF80C204FF48073206004F1F9
:1037F80018002283BDF808206383E383A283257120
:1038080000F0FCFC04F11C0000F0F8FC9FED060A37
:10381800019904F1080000F047F84FF6FF7365625C
:10382800238405B030BD00BF00000000F8B5044691
:1038380001F034FF002623682671834205D104F184
:103848000800BDE8F84000F049B8012794F8205076
:10385800206004F11800BD40277100F0ABFD6DB287
:10386800284394F82150BD4084F8200004F11C003E
:1038780000F0A0FD94F820306DB2666203F00303F7
:103888002843022BC0B284F8210009D000F00300BD
:103898000228D4D1002BD2D14FF0FF336362CEE798
:1038A8008307CCD16762CAE770B5044682B0C1F31A
:1038B8000726CDB2ADF8041001F0F0FE4FF4807287
:1038C8004FF001232060A01DA571A280E671A360BE
:1038D80002B0BDE8704000F091BC00BF38B50446A6
:1038E80001F0DCFE002223682271834210D00122FD
:1038F800A57AE37A954020602271A01D6DB243B984
:1039080000F058FD40B22843C0B27F28A0720AD008
:1039180038BD00F04FFDB0FA80F040092843C0B22E
:103928007F28A072F4D101F0B9FE07EE900AF8EEF4
:10393800677AC4ED037A38BD00B583B0082AADF8BC
:1039480004104FF00301ADF800304180BDF800C00D
:10395800BDF81010BDF804E0A0F804C001811146BC
:10396800BDF814C028BF0821042A9DF81830A0F813
:1039780000E0A0F80CC0017408D8022A0ED801D1C2
:103988000122C280437403B05DF804FB0122437432
:10399800C2804281C28103B05DF804FB01224374F6
:1039A800C280428103B05DF804FB00BF2DE9F04FEF
:1039B800DFF81C8300258DB0C04C037008F140036C
:1039C8004260074601920E46202229464046C4F826
:1039D8006831C4F86481CDE90255CDE90455CDE9D3
:1039E8000655CDE90855CDE90A5510F011FC2022FD
:1039F800294604F5A170C4F83151C4F83551C4F80A
:103A08003951C4F83D5110F003FC019B84F8485229
:103A180084F830317A68002A6AD02B4604F5987108
:103A2800454606F1100A9E46F01856F803B0E2180B
:103A38000EF1010ED0F80CC0D0F80490D0F8088030
:103A480044F803B0C2F80CC04FF0000CC2F8049060
:103A5800C2F80880008A25F802CB10821AF80320E1
:103A680001F8012F002A70D07A684FF00100123354
:103A7800724584F84802D7D84FF4802290489DF8C0
:103A8800043008214FF000084FF00009C4F88431D1
:103A98000023C4E95B020122C4F8743184F8803140
:103AA800C4E95E2194F84812C4E96489A9B3C4F84A
:103AB8009821002284F8813184F888313B78C4E960
:103AC8006722002B38D0012200200121013B84F815
:103AD800A421C4E96C01082B30D8DFE813F0BD003D
:103AE800C200C700CC00D100D600DB00E100E8002E
:103AF8009DF804300121C4F87421C4F884314FF4CE
:103B0800802384F880216E4AC4E95B2308230022BD
:103B1800C4E95E130023C4E964230123002284F866
:103B28008131002384F888310323C4F898313B7825
:103B3800C4E96722002BC6D184F8A431614802F099
:103B480029FE034638B1FFBEFEE77A681233724594
:103B58003FF66AAF90E702A95A48029302F078FF4D
:103B68008246002876D1042240F2FF710A90CDE9FE
:103B7800081294F83021002A00F0F3804FF006086C
:103B88000AEBCA034FEACA0904EB43035B7C072B21
:103B980007D8DFE803F0595C5653504D4A04072311
:103BA80007930FFA8AF6D14406EBC60604EB4909D7
:103BB80004EB46077500384600F020FB99F81030F2
:103BC800042B00F3AA80022B00F3BD8000F0B9801B
:103BD80004EB0A03002283F8202114F81630002B86
:103BE80078D0022B00F08A80012B40F0B2807B78DD
:103BF800012B00F0B080002B334B18BF002305A920
:103C08003048CDE9053802F0F1F9002840F0AC80E1
:103C18000AF1010A94F830315FFA8AFA534540F202
:103C2800A0802A4B53F82A80AAE706230793B8E70F
:103C380005230793B5E704230793B2E70323079304
:103C4800AFE702230793ACE700230793A9E7012313
:103C58000793A6E7FFBEFEE703224023C4E96A23D1
:103C68006CE707226023C4E96A2367E70F228023F1
:103C7800C4E96A2362E71F22A023C4E96A235DE737
:103C88003F22C023C4E96A2358E77F22E023C4E91E
:103C98006A2353E7FF224FF48073C4E96A234DE790
:103CA80040F2FF124FF49073C4E96A2346E740F2EA
:103CB800FF324FF4A073C4E96A233FE7205300247E
:103CC800002002408C5400240002B025C4420108A0
:103CD800004000307B78062B37D0072B3DD0022BD5
:103CE8004AD0032B4AD0002B4CD0012B48D0042BB0
:103CF8004AD0052B254B18BF002380E77B78042B7F
:103D080025D0052B2BD08BB3012B31D0022B31D0F2
:103D1800032B1F4B18BF002371E70323043504EB63
:103D28000A0B4FF0000925448BF82031284609F189
:103D3800010900F063FA9BF8203104354B45F5DCA6
:103D48004BE70123EAE70223E8E7124B57E7124B58
:103D580055E7002353E7114B51E7114B4FE7114B40
:103D68004DE70DB0BDE8F08FFFBEFEE70E4B46E70E
:103D78000E4B44E70E4B42E70E4B40E70E4B3EE737
:103D88000E4B3CE70E4B3AE70E4B38E70000B84FB6
:103D9800002090360800900C1000C0102000F0148D
:103DA8008000501D000180210004002A0008302EE8
:103DB800001060320040C03A0080F03E00005247D8
:103DC800000021430000844B38B5094C40F2FF72D3
:103DD8004FF0011104F5B675284602F0E7FD94F896
:103DE8003021D4F864112846BDE8384002F052BBAF
:103DF80020530024064B0F29D3F8683198BF03EBF2
:103E0800011333F8123000EE103ABBEEC80A7047BF
:103E180020530024214B02689A4200D07047204A60
:103E280000232048D2F8D81030B51F4C41F02001AB
:103E380083B0C4F8D001092004F5E875C4E9750316
:103E48004FF48060C2F8D810D2F8D8204FF400613F
:103E5800C4E9773094F8480202F02002C4F8E4116B
:103E68004FF40051984201922846C4F8E811C4E979
:103E78007C33019B14BF00234FF48073C4F8EC31EA
:103E880003F00CF808B1FFBEFEE704F5B673C4F8FA
:103E9800B851C4F8083203B030BD00BF002002405A
:103EA800004402584000024020530024014803F017
:103EB8006DBB00BFF054002402682DE9F84F4B4B4E
:103EC8009A4201D0BDE8F88F494D95F84832002B49
:103ED800F8D095F83031002B77D0002405F10C0983
:103EE80005F5A17605F59877A04613E003F00101E2
:103EF80017F811BCA9F1080000F06AFABBF1010F2C
:103F080025D895F83031013409F112090236A2B2E8
:103F180093422BD917F8012F002AF4D0D5F8643131
:103F28000021327833F81400D5F8683103EB041314
:103F380023F81200338801339BB233805FFA83FA87
:103F48003A789A42D2D88A46A6F80080D0E7CAF3CF
:103F58004001A9F1040000F03BFABBF1020FCAF3DB
:103F68008001CED0484600F033FACAE7002395F81E
:103F78004802204909229842C5F8D8314FF4806098
:103F8800C5F8D011C5F8D4214FF400614FF40052A0
:103F9800C5F8DC3108BF4FF48073C5F8E821C5E9DE
:103FA800780100221448C5E97B32C5F8F42102F0F3
:103FB80075FF08B1FFBEFEE795F83021D5F864110A
:103FC8000E48BDE8F84F02F065BA0A4909224FF4D5
:103FD8008060C5F8D831C5E974124FF400614FF418
:103FE8000052C5E97730C5E97912DAE700200240C6
:103FF8002053002440000240F05400248C54002434
:10400800704700BF10B592B0ADF804100180C9B276
:10401800149C0B29C460C0E901233FD090F801C06B
:10402800BCF10F0F3AD8022A3FD0032A02D0012A46
:1040380000D000220E92012B02D0022B18BF0023C1
:10404800022C0F932CD0032C2AD0012C28D000232B
:104058000A29109327D85C4A02EB812202610A29B7
:1040680014D8DFE801F0A39587796B5D4F413325BC
:104078000600564BD3F8E01041F48061C3F8E01015
:10408800D3F8E03003F480630C930C9B01230DA953
:10409800104603FA0CF30D9303F0CAFD12B010BDDD
:1040A8000A291094D7D90022D8E711220E92C2E724
:1040B800464BD3F8E01041F40071C3F8E010D3F890
:1040C800E03003F400730B930B9BDFE73F4BD3F80F
:1040D800E01041F48071C3F8E010D3F8E03003F445
:1040E80080730A930A9BD1E7384BD3F8E01041F06C
:1040F8008001C3F8E010D3F8E03003F0800309939F
:10410800099BC3E7314BD3F8E01041F04001C3F8F5
:10411800E010D3F8E03003F040030893089BB5E7BC
:104128002A4BD3F8E01041F02001C3F8E010D3F88F
:10413800E03003F020030793079BA7E7234BD3F84E
:10414800E01041F01001C3F8E010D3F8E03003F0BC
:1041580010030693069B99E71C4BD3F8E01041F037
:104168000801C3F8E010D3F8E03003F00803059322
:10417800059B8BE7154BD3F8E01041F00401C3F819
:10418800E010D3F8E03003F004030493049B7DE7C8
:104198000E4BD3F8E01041F00201C3F8E010D3F859
:1041A800E03003F002030393039B6FE7074BD3F858
:1041B800E01041F00101C3F8E010D3F8E03003F05B
:1041C80001030293029B61E7000002580044025871
:1041D80008B5012143780069994089B203F030FF9E
:1041E800003818BF012008BD01230A46417800693C
:1041F80003FA01F189B203F029BF00BF8378022BCB
:1042080030B504468FB037D0032B33D0012B31D0D3
:1042180000230A93E378012B2AD0022B28D000230D
:104228000B93002320460C9301F05AFD05462046C7
:1042380001F05EFD23780990082B13D8DFE803F01E
:104248001F3245586B7E91A40500594BD3F8E020E6
:1042580042F48072C3F8E020D3F8E03003F48073AE
:104268000893089B09A9284603F0E2FC0FB030BD6B
:104278000B93D6E70A93CDE711230A93CAE74C4B71
:1042880009A92846D3F8E02042F00102C3F8E0204B
:10429800D3F8E03003F001030093009B03F0C8FC5F
:1042A8000FB030BD424B09A92846D3F8E02042F0B0
:1042B8000202C3F8E020D3F8E03003F002030193D0
:1042C800019B03F0B5FC0FB030BD394B09A9284656
:1042D800D3F8E02042F00402C3F8E020D3F8E0303D
:1042E80003F004030293029B03F0A2FC0FB030BD5D
:1042F8002F4B09A92846D3F8E02042F00802C3F85A
:10430800E020D3F8E03003F008030393039B03F0A5
:104318008FFC0FB030BD264B09A92846D3F8E02002
:1043280042F01002C3F8E020D3F8E03003F01003A5
:104338000493049B03F07CFC0FB030BD1C4B09A90F
:104348002846D3F8E02042F02002C3F8E020D3F852
:10435800E03003F020030593059B03F069FC0FB0E0
:1043680030BD134B09A92846D3F8E02042F040029B
:10437800C3F8E020D3F8E03003F040030693069B2F
:1043880003F056FC0FB030BD094B09A92846D3F8F5
:10439800E02042F08002C3F8E020D3F8E03003F0D8
:1043A80080030793079B03F043FC0FB030BD00BFA9
:1043B8000044025838B5054601F092FC04462846E8
:1043C80001F096FC01462046BDE8384003F038BEAF
:1043D80070B506460D4601F083FC0446304601F0F0
:1043E80087FC2A1E0146204618BF0122BDE87040FE
:1043F80003F02CBE0023122270B586B0CDE902234B
:1044080004930368032B01D804230593061D841D18
:10441800304601F065FC0546304601F069FC03466C
:1044280001A92846019303F003FC204601F058FC3B
:10443800034620461C4601F05BFC01A903462046C2
:10444800019303F0F5FB06B070BD00BF634A036833
:10445800934210B58CB028D0614A934258D0614A33
:10446800934200F09480604A934201D00CB010BD92
:104478005E4C5F48D4F8E03043F00203C4F8E03003
:10448800D4F8E03003F002030A930A9BFFF7B2FF67
:10449800D4F8F43043F08003C4F8F430D4F8F4309E
:1044A80003F080030B930B9BE0E7504C5148D4F882
:1044B800E03043F00203C4F8E030D4F8E03003F011
:1044C80002030193019BFFF795FFD4F8E83000221F
:1044D8001F2043F400131146C4F8E830D4F8E8303C
:1044E80003F400130293029BD4F8D83043F001037D
:1044F800C4F8D830D4F8D83003F001030393039BF1
:1045080002F01AFB1F200CB0BDE8104002F052BBAD
:10451800364C3948D4F8E03043F08003C4F8E03032
:10452800D4F8E03003F080030493049BD4F8E0301F
:1045380043F00203C4F8E030D4F8E03003F002039B
:104548000593059BFFF756FFD4F8E8300022212099
:1045580043F480031146C4F8E830D4F8E83003F493
:1045680080030693069BD4F8D83043F00103C4F8BF
:10457800D830D4F8D83003F001030793079B02F032
:10458800DBFA21200CB0BDE8104002F013BB1B4839
:10459800FFF730FF154B00224820D3F8E8401146BA
:1045A80044F40004C3F8E840D3F8E84004F40004F5
:1045B8000894089CD3F8D84044F00104C3F8D840C4
:1045C800D3F8D83003F001030993099B02F0B4FA39
:1045D80048200CB0BDE8104002F0ECBA005400408E
:1045E80000580040005C0040001C0058004402587D
:1045F800F8570024705500244856002420570024FA
:104608002DE9F0431A4B87B000254FF010099E465C
:10461800EC46184BFF22E04667461A700EF1180662
:104628000EF13004CDE90055CDE90255ADF8009002
:10463800BCE80F00CDE90455AEE80F009CE8030084
:104648000095ADF800908EE80300B8E80F000FC69B
:104658009CE803000095ADF8009086E803000FCFB2
:104668000FC49CE8030084E8030007B0BDE8F083AA
:10467800480000246C55002410B5EFF3108472B67E
:10468800084B1A78120602D504B962B610BD1B7819
:10469800D82205485BB202FB0300143002F076FF13
:1046A800F2E700BF6C55002470550024014804F05F
:1046B80065BB00BFFC550024014804F05FBB00BF88
:1046C800D4560024014804F059BB00BFAC5700245D
:1046D8002DE9F0430F68D8243F4D85B007FB04F45B
:1046E800032F05EB0403036040DCCB680E46012B67
:1046F8003CD84DD04FF0D808B646DFF8FC9008FB00
:104708000758BEE80F00C446ACE80F00DEF80030DA
:104718000DF1100ECCF80030D8F808C099E80F0059
:104728000EE90F000EEB8703BCF1010F53F8103CA4
:10473800C8F88C3031D0BCF1020F42D0BCF1000F68
:1047480035D0317C8C34D823002201202C4403FB43
:1047580007534900C3E92602C3F894102046C3E969
:104768002822C3E92A2204F0FBF818B1012005B079
:10477800BDE8F0830146204604F00CFB0028F5D183
:104788000146204604F030FB003818BF0120EEE750
:104798000B7C103B672BADD9E8E701F01BF90F4BF9
:1047A80098420CBF0E4B0F4BC8F89030C9E701F088
:1047B80011F90A4B98420CBF0B4B0C4BC8F89030C0
:1047C800BFE701F007F9054B98420CBF084B094BAE
:1047D800C8F89030B5E700BF70550024000E2707D1
:1047E8002D0FB0303211D0205F4390608A62E030E4
:1047F800200BA0101A098010304201082DE9F04161
:10480800D0F8008082B00D4617461E4608F18C0489
:10481800204604F0BBFA2028FAD1D8F80C3073B936
:104828006D002046089C33463A46A9B2009404F02D
:10483800EDF8003818BF012002B0BDE8F081089BF0
:1048480032463946204604F0B5F9F2E7044B102207
:104858001A7483F8E82083F8C02183F898227047F7
:104868007055002430B5002395B04FF480710622AE
:1048780004460B9306921393CDE90C13CDE90E333E
:10488800CDE9113301F0A8F807282BD004F1100561
:1048980041F2883206A9284605F0B8F828B1012364
:1048A800184684F85C3015B030BD0222022306A9F0
:1048B8002846CDE9002310220123CDE90223002256
:1048C8004FF48003CDE9042305224FF0807306924C
:1048D8006A460F9341F2883305F004FA0028DED1C6
:1048E80015B030BD0323012084F85C3015B030BD0D
:1048F80070B50023A4B04FF080724FF48075044661
:10490800ADF806300D93CDE910320122CDE90E53F2
:10491800CDE91223CDE91433002943D0F02300F167
:10492800100508AEADF80630C02341F28832314692
:104938002846089305F06AF828B10123184684F838
:104948005C3024B070BD41F288320DF10601284672
:1049580005F0C6F803460028EFD105224FF4807110
:104968001E93284616924FF080721B9321931F9234
:1049780002AA9FED1F7BCDE91C13CDE922338DEDF3
:10498800027B9FED1D7B41F2883316A98DED047BD8
:104998009FED1B7B8DED067B05F0A4F90028CCD19B
:1049A80024B070BD00F1100508AE612341F28832D1
:1049B80031462846089305F029F80028BDD141F270
:1049C80088320DF10601284605F008F90028B4D10F
:1049D800BDF80630204623F0780343F04003ADF8D5
:1049E8000630FFF73FFF00289ED0A6E7AFF3008010
:1049F800000000000100000010000000010000009D
:104A080000000000000040002DE9F04F00234FF4A3
:104A1800807501264FF0807804462DED028BABB0EF
:104A28008DF8073013932193299314950E96CDF89A
:104A38005C80CDE91533CDE91863CDE91A33CDE9AA
:104A48002253CDE92433CDE9273306231C9300F004
:104A5800C3FF072808D004F1100741F288321CA9C7
:104A6800384604F0D3FF40B10123184684F85C307F
:104A78002BB0BDEC028BBDE8F08F4FF0020A4FF06F
:104A8800020B4FF0050941F2883308AA1CA93846E1
:104A9800CDF89480CDF870909FED2D8BCDE908ABC3
:104AA8004FF0000A4FF4800B8DED0A8BCDE90CAB6B
:104AB80005F018F90028D7D141F2883238460EA9F6
:104AC80004F0A4FF0028CFD1402341F288320DF131
:104AD800070138468DF8073005F002F80028C3D1E1
:104AE80041F288330EA902AA3846CDF83890CDF89D
:104AF8005C809FED197B8DED048BCDE906AB8DEDC8
:104B0800027B05F0EFF803460028ADD1CDF8709090
:104B18004FF00109CDF894804FF00008219308AABE
:104B280029931CA938462295CDE92333CDE92733AB
:104B380041F288338DED0A8BCDE90CABCDE90889BC
:104B480005F0D0F8002893D0304684F85C608FE7F1
:104B580010000000010000004000000040000000BC
:104B68002DE9F043624CA3B00D46046000F034FF19
:104B7800072800F0A980286823466968AA6807C33F
:104B88001E46AB8926F8043B3046257B677B04F03C
:104B98001FFFE0B9574B012D4FF00108E061236179
:104BA80014BF4FF480134FF40003C4E9058893FA47
:104BB800A3F3B3FA83F34FF48079013BC4F824904C
:104BC800C4E90B003046236204F096FE38B1012296
:104BD800134684F85C20184623B0BDE8F0836623AA
:104BE8000B90139041F2883206A90693CDE90C90F8
:104BF800CDE90E00CDE91100304604F007FF00288A
:104C0800E5D1992341F2883206A93046069304F08B
:104C1800FDFE0028DBD105231C9019906A461493E9
:104C28004FF08073219014A91D9341F288339FEDB2
:104C38002A7BCDE91A90CDE91F008DED007B9FED11
:104C4800287B30468DED027B9FED277B8DED047B25
:104C580005F048F80028BAD129462046FFF748FE53
:104C68000028B4D12046FFF7CFFE03460028AED176
:104C7800002FB0D1189330460027002606AA14A9A1
:104C8800CDF86890CDE91F33EB2314934FF44063BC
:104C98001B934FF4005317934FF440431C93A023E6
:104CA8001693062319934FF0805321934FF04073C6
:104CB800CDE906671D9305F08DF8034600288AD0D4
:104CC800434684F85C8086E701230322184684F86B
:104CD8005C2023B0BDE8F083000000000100000064
:104CE800100000000100000000000000000040006B
:104CF800D0580024005000522DE9F04F8FB0414B9E
:104D08000024026800AF9A427C63C7E90944C7E9F6
:104D18000B4403D03C37BD46BDE8F08F3A4B40F614
:104D280009213A48EB46D3F8D42007F11C0607F1CD
:104D3800220A4FF0020942F480424FF00308C3F8F8
:104D4800D420D3F8D42002F48042BA60BA68D3F8E9
:104D5800E02042F04002C3F8E020D3F8E02002F05F
:104D68004002FA60FA68D3F8E02042F02002C3F863
:104D7800E020D3F8E02002F020023A613A69D3F843
:104D8800E02042F01002C3F8E020D3F8E02002F05F
:104D980010027A617A69D3F8E02042F00202C3F87F
:104DA800E020D3F8E030F86103F002033984BB61F6
:104DB800174B7B60BB697B6853F8040F7B6000F07E
:104DC8008FFF7B680546186800F092FF16F8013BD4
:104DD800786207F124012846C7F830807B63C7E969
:104DE8000A9402F025FF5645E5D100225C201146C1
:104DF80001F0A2FE5C2001F0DDFE3C37DD46BD4639
:104E0800BDE8F08F00500052004402580A0A090910
:104E18002C590024114B02689A4200D07047104A5E
:104E280070B5D2F8D4300F4C23F4804304F118063F
:104E3800C2F8D43054F8040F00F052FF0546206839
:104E480000F056FF0146284603F032F8B442F1D18B
:104E58005C20BDE8704001F0BBBE00BF00500052AE
:104E6800004402582C590024014805F03FB800BFFF
:104E7800E0580024084B1A1D981D03F1080110B4CE
:104E88009C1C9A6603F10A02C3E91834C3E91B01A2
:104E98005DF8044B5A677047D058002438B503684A
:104EA80071B9026A00F1280500F5AC74012A0CBF3B
:104EB800002140218BBB1D4B5722C0F858310DE013
:104EC800426A00F1C00500F5E874012A0CBF002110
:104ED8004021EBB1164B5A22C0F8D03100232046AE
:104EE800C4E901214FF480524FF48061636262612A
:104EF8004FF48042C4E903314FF48073C4E90623B8
:104F08004FF40033236201F0C9FF58B1FFBEFEE73A
:104F1800084B5822C0F8D031E0E7074B5922C0F8B7
:104F28005831DBE7C5E92044A56338BD10000240CD
:104F38007000024028000240580002402DE9F0436A
:104F4800821D05468BB0031D05F10A010830CDE925
:104F5800052305F10C02AB69CDE907010992002B85
:104F68003DD0EB69B3FA83F84FEA581801230222BF
:104F780005AE0AAF4FF006090393CDE9012356F8B1
:104F8800044B2B792278934216D02B68F3B1012B6E
:104F980002D1F2B10A230493204600F0A9FE034689
:104FA8002046009300F09CFE694602F041FEBE4296
:104FB800E5D10BB0BDE8F083697963789942E4D113
:104FC800B8F1000FF3D02B68002BE0D1CDF810908A
:104FD800E2E76378022B14BF0A230823DBE74FF0CC
:104FE8000108C3E7534A0368934230B505468BB0BE
:104FF80055D02032934252D04F4A934204D02032A7
:10500800934201D00BB030BD4C4C4D48D4F8E03041
:1050180043F00103C4F8E030D4F8E03003F00103B2
:105028000593059BD4F8E03043F00803C4F8E0305A
:10503800D4F8E03003F008030693069BD4F8E03078
:1050480043F04003C4F8E030D4F8E03003F0400304
:105058000793079BD4F8F03043F40003C4F8F0300A
:10506800D4F8F03003F400030893089BFFF766FFB9
:10507800D4F8D830296843F001032F4A3048C4F8DF
:10508800D830891AD4F8D83018BF012103F00103A9
:105098000993099B0BB0BDE83040FFF7FFBE274CD2
:1050A8002848D4F8E03043F00103C4F8E030D4F8DD
:1050B800E03003F001030093009BD4F8E03043F0A4
:1050C8001003C4F8E030D4F8E03003F01003019383
:1050D800019BD4F8E03043F04003C4F8E030D4F842
:1050E800E03003F040030293029BD4F8F03043F41D
:1050F8008003C4F8F030D4F8F03003F4800303934D
:10510800039BFFF71BFFD4F8D830296843F001034D
:10511800084A0C48C4F8D830891AD4F8D83018BFCF
:10512800012103F001030493049B0BB0BDE8304058
:10513800FFF7B4BE04580140045C01400044025823
:10514800A45B002448590024014802F01FBA00BF9C
:10515800A05A0024014802F019BA00BF185B0024C5
:10516800014802F013BA00BFFC5C0024014802F0B9
:105178000DBA00BF745D00241A4A0368934210B444
:105188000BD02032934208D0174A934216D02032CF
:10519800934213D05DF8044B7047144B0022D3F8A8
:1051A8005442C3F85822002CF4D0D3F84802D3E96B
:1051B800931223465DF8044B520818470B4B002204
:1051C800D3F8B044C3F8B424002CE3D0D3F8AC240B
:1051D800D3F8A814D3F8A404520823465DF8044B66
:1051E800184700BF04580140045C01404859002496
:1051F800184A0368934210B40BD02032934208D067
:10520800154A934217D02032934214D05DF8044BCC
:105218007047124BD3E994245208C3F85822002C43
:10522800F4D0D3E99201234601EB820100EB82001E
:105238005DF8044B1847094BD3F8AC24D3F8B044B5
:105248005208C3F8B424002CE0D0D3F8A814D3F83B
:10525800A404E8E704580140045C014048590024CC
:105268002DE9F04F0C684FF41776754F87B004FBA3
:1052780006F6012C07EB060AC0F800A000F3A08090
:105288000D468E464FF00008D44669A3D3E90023A3
:1052980069A1D1E90001CDE9022306ABCAF8508221
:1052A80003EB8403CDE9040153F810BC53F8083C20
:1052B800CAE992880193BEE80F00ACE80F00BEE887
:1052C8000F00ACE80F00019B9EE80300CAF828B065
:1052D800CAF8C0308CE803002B69042B0CD8DFE82F
:1052E80003F0737D879103004FF41773554A03FB4E
:1052F80004739A64C3F8E020AA692B6A002A43D091
:10530800002B4FF4177308BF022203FB047318BF66
:105318000322DA6201221A63EA696B6A002A40D121
:10532800191E4FF4177318BF012103FB0473C3E957
:1053380031126B69022B05D8434A12F80380434A9D
:1053480052F823904FF4177306F128004246494655
:1053580003FB04740023384463646363E365C4F89F
:10536800DC30C4F8CC30C4F8F430C4E90F33C4E9F5
:105378001533C4E93533C4E93B33022306F058FE3C
:10538800002849D0FFBEFEE7191E4FF4177318BF57
:10539800012103FB0473C3E90B12EA696B6A002A53
:1053A800BED0002B4FF4177308BF022203FB04730F
:1053B80018BF0322C3F8C4200122C3F8C820B8E7E5
:1053C800012007B0BDE8F08F4FF417734FF4FA527D
:1053D80003FB04739A64C3F8E0208DE74FF4177356
:1053E8004FF47A5203FB04739A64C3F8E02083E70E
:1053F8004FF417734FF4FA4203FB04739A64C3F82B
:10540800E02079E74FF417734BF6803203FB0473FF
:105418009A64C3F8E0206FE706F1C0000223424611
:105428004946384406F004FE0028CAD0FFBEFEE70D
:1054380004580140045C014024580140245C0140A8
:105448004859002400770100044301080843010873
:105458000068704770B5046882B015460E46C4F8F7
:105468005032C4E99212069AC4F85422A269012A59
:1054780026D0626A012A9AB211D0294604F1C000E6
:10548800019206F091FE236A019A012B10D0294659
:1054980004F1280006F088FE002002B070BD04F177
:1054A800C000019206F012FF236A019A012BEED187
:1054B800314604F1280006F009FF002002B070BD53
:1054C800226A012A9AB211D0294604F128000192D1
:1054D80006F06AFE636A019A012B10D0294604F18E
:1054E800C00006F061FE002002B070BD04F1280083
:1054F800019206F0EBFE636A019A012BEED1314668
:1055080004F1C00006F0E2FE002002B070BD00BF4A
:1055180003681B69042B05D8044A02EB830393ED47
:10552800000A70479FED020A704700BF1443010844
:1055380000803B470368D3F858027047704700BFA4
:1055480008B500F0DDFCBDE8084001F0BDBB00BFB8
:10555800064808B503680BB102F07CFD04480368EF
:105568001BB1BDE8084003F06BBC08BD1062002405
:10557800085E0024064808B503680BB102F06AFD0E
:10558800044803681BB1BDE8084003F059BC08BDD6
:1055980010620024085E0024064808B503680BB1B1
:1055A80002F058FD044803681BB1BDE8084003F049
:1055B80047BC08BD10620024085E0024364BDA6A36
:1055C800520062D59A6A9A6A9A6A9B6A180600D546
:1055D80000BE314B9B6A990600D500BE2E4B9B6AD4
:1055E800DA0600D500BE2C4B9B6A1B0700D500BE0F
:1055F800294B9B6A980700D500BE274B9B6AD907A1
:1056080000D500BE244B9B6A1A0400D500BE224B6D
:105618009B6A9B0400D500BE1F4B9B6AD80400D52B
:1056280000BE1D4B9B6A190500D500BE1A4B9B6A2C
:105638005A0500D500BE184B9B6A9B0500D500BED5
:10564800154B9B6AD80500D500BE134B9B6A990180
:1056580000D500BE104B9B6ADA0100D500BE0E4B88
:105668009B6A1B0300D500BE0B4B9B6A580300D5F1
:1056780000BE094B9B6A990300D500BE064B9B6A86
:10568800DA0306D400BE00BEFEE7DB6A9B07FAD544
:10569800F8E700BEF6E700BF00ED00E000F03CBC14
:1056A80000F040BC0A4B9B6803F17843B3F5003F18
:1056B8000BD3084B986848B19868012806D09868B9
:1056C800022803D09B68032070470120704700BF61
:1056D80000ED00E0000080382DE9F041CEB004462E
:1056E8004C2200210AA80EF093FD2022002102A8D6
:1056F8000EF08EFDBC2200211EA80EF089FD0220AE
:1057080004F012F82368012B4FF0000354D0534AD9
:1057180002250193C820D16A514B21F00101D162C1
:10572800D26A02F0010201929A6942F440429A61F7
:105738009B6903F440430193019B494A93699B0485
:10574800FCD548490224002201268B6A04274FF021
:10575800080823F0030323438B62052316900AA845
:1057680018934FF480331096179419941597CDF821
:105778006880CDE91B222122CDE91344CDE90A2313
:1057880004F0BCFC00B1FEE73F220323294602A82F
:10579800CDE9022300220823CDE904234022402337
:1057A800CDE9062340234FF48062CDE9082304F0B5
:1057B800D3FF0346B8B1FEE7294A04250093F02039
:1057C8009169264B41F440419161926902F440424B
:1057D8000092DA6A42F00102DA62DB6A03F001033E
:1057E8000093009BA9E720224FF4805125934FF4A2
:1057F80040152B9280222D931EA830932691359127
:105808004FF48071249234920C223394439140F2E5
:10581800271120921022CDF884802A971F96CDE96F
:105828002E34CDE93B334FF48033CDE92246319312
:10583800002446930623CDE93E4527934FF4806321
:10584800094C2C931E94CDE9281205F0E1F900B11A
:10585800FEE703F08FFF4EB0BDE8F081000400586A
:1058680000480258004402580F130F0370B584B063
:10587800012401F0D7F94FF480764FF04052194BCC
:1058880068460025ADF800400396CDE9012301F0F4
:10589800E7F919224FF0404368468DF80820019334
:1058A8008DF80F40ADF80D608DF801408DF80A5065
:1058B80001F0D6F902230B2268468DF80F508DF8B7
:1058C80001304FF062538DF808200193ADF80D4078
:1058D8008DF80A4001F0C4F9042001F0B1F904B0D0
:1058E80070BD00BF0E00010330B50D46044685B0FB
:1058F800D1E9000184E8030000F0D2FAAB79A3B340
:105908000AF084F8FEF77CFE08F0F4FC09F080FD4C
:105918002B798BBB6B799BB1BFF34F8FBFF36F8F25
:105928002A4B0022C3F85022BFF34F8FBFF36F8F6B
:105938005A6942F400325A61BFF34F8FBFF36F8F39
:105948004FF0FF32002300240025694620480292C8
:105958008DF80C30CDE9004509F0ECF81C4809F049
:1059680051F908F0F7F805B030BD2046FFF7B4FE4E
:105978002046FFF77BFFC3E7144C0023C4F88430AC
:10598800BFF34F8FD4F8801043F6E07EC1F34E3C4E
:10599800C1F3C9014FEA4C1C0CEA0E000B4640EA61
:1059A8008372013BC4F860225A1CF8D1ACF1200C78
:1059B8001CF1200FF0D1BFF34F8F636943F480339C
:1059C8006361BFF34F8FBFF36F8FA3E700ED00E074
:1059D800005E002404F0F0BF1C4B9B6803F1784282
:1059E800B2F5003F25D3B3F5803F20D303F16042E1
:1059F800B2F5003F1FD303F15C42B2F5002F1CD370
:105A080003F17042B2F5902F19D303F14842B2F571
:105A1800803F16D303F18042B2F1806F13D303F1B4
:105A2800E043B3F5000F2CBF082007207047012082
:105A380070470020704702207047032070470420F9
:105A48007047052070470620704700BF00ED00E052
:105A580003480023034A044903600DF06DBA00BFF0
:105A6800005E0024000000244555000810B4204CB6
:105A78000022204B83B0D4F888101F4841F47001ED
:105A8800C4F8881019681D4C41F0010119601A61A9
:105A9800196808401A4918609A61DA611A629A62AC
:105AA800DA621A635A639A63DA631A645A64186882
:105AB80020F4802018601A66D3F8DC2042F0604297
:105AC800C3F8DC20D3F8DC300193019B236819402C
