:020000040800F2
:10000000000002209906000895060008C54B00086C
:1000100095060008950600089506000800000000F7
:10002000000000000000000000000000950600082D
:10003000950600080000000095060008494B0008DE
:100040009506000895060008950600089506000824
:100050009506000895060008950600089506000814
:100060009506000895060008950600085147000807
:100070005D470008D134000869470008754700084B
:10008000E1EC0008813C0008950600089506000890
:1000900095060008950600089506000895060008D4
:1000A00095060008950600089506000895060008C4
:1000B0000DE1000819E1000825E10008B53C000841
:1000C00095060008C13C0008950600087DD9000887
:1000D00089D9000815EB000841EB000875EB000812
:1000E0009506000895060008000000009506000827
:1000F0009506000895060008950600089506000874
:10010000950600089506000831E1000895D9000819
:10011000A9EB0008DDEB000895060008950600082D
:100120009506000895060008B9D90008EDD9000821
:1001300015ED0008950600089506000895060008CC
:1001400000000000000000000000000000000000AF
:1001500095060008950600089506000811EC0008B1
:10016000CD3C000895060008594B00087D4B00085F
:1001700095060008A14B00089506000895060008A2
:10018000950600089506000845EC000879EC000883
:10019000A1D90008ADD90008950600089506000809
:1001A00095060008950600089506000895060008C3
:1001B0007144000895060008950600089506000899
:1001C00095060008950600089506000895060008A3
:1001D0009506000895060008950600089506000893
:1001E0009506000895060008950600089506000883
:1001F0009506000895060008950600089506000873
:100200009506000895060008950600089506000862
:100210009506000895060008950600089506000852
:1002200095060008950600089506000800000000E5
:1002300095060008950600080000000095060008D5
:100240009506000895060008950600089506000822
:100250009506000895060008950600089506000812
:100260009506000895060008950600089506000802
:100270009506000895060008ADEC00080000000097
:100280009506000895060008950600080000000085
:080290000000000095060008C3
:1002A00010B5054C237833B9044B13B10448AFF3B0
:1002B00000800123237010BDF8030024000000001B
:1002C0004028010808B5034B1BB103490348AFF3AD
:1002D000008008BD00000000FC0300244028010845
:1002E000034613F8012B002AFBD1181A0138704776
:1002F00001F0FF01102A2BDB10F0070F08D010F8D7
:10030000013B013A8B422DD010F0070F42B3F6D1DA
:10031000F0B441EA012141EA014122F007047FF0F3
:1003200000070023F0E80256083C85EA010586EA4A
:10033000010685FA47F5A3FA87F586FA47F6A5FA86
:1003400087F68EB9EED1F0BC01F0FF0102F0070292
:1003500032B110F8013B013A83EA010313B1F8D13D
:100360000020704701387047002D06BF354603381E
:10037000073815F0010F07D1013015F4807F02BF57
:10038000013015F4C03F0130F0BC0138704700BFA8
:1003900053B94AB9002908BF00281CBF4FF0FF31EC
:1003A0004FF0FF3000F074B9ADF1080C6DE904CEE8
:1003B00000F006F8DDF804E0DDE9022304B0704740
:1003C0002DE9F047089D04468E46002B4DD18A4208
:1003D000944669D9B2FA82F252B101FA02F3C2F13B
:1003E000200120FA01F10CFA02FC41EA030E9440CC
:1003F0004FEA1C48210CBEFBF8F61FFA8CF708FBED
:1004000016E341EA034306FB07F199420AD91CEBC4
:10041000030306F1FF3080F01F81994240F21C81F6
:10042000023E63445B1AA4B2B3FBF8F008FB10333E
:1004300044EA034400FB07F7A7420AD91CEB040473
:1004400000F1FF3380F00A81A74240F20781644443
:10045000023840EA0640E41B00261DB1D4400023C8
:10046000C5E900433146BDE8F0878B4209D9002D2C
:1004700000F0EF800026C5E9000130463146BDE8B6
:10048000F087B3FA83F6002E4AD18B4202D3824220
:1004900000F2F980841A61EB030301209E46002DCF
:1004A000E0D0C5E9004EDDE702B9FFDEB2FA82F224
:1004B000002A40F09280A1EB0C014FEA1C471FFA82
:1004C0008CFE0126200CB1FBF7F307FB131140EA69
:1004D00001410EFB03F0884208D91CEB010103F136
:1004E000FF3802D2884200F2CB804346091AA4B2F8
:1004F000B1FBF7F007FB101144EA01440EFB00FECC
:10050000A64508D91CEB040400F1FF3102D2A64530
:1005100000F2BB800846A4EB0E0440EA03409CE7CF
:10052000C6F12007B34022FA07FC4CEA030C20FA7C
:1005300007F401FA06F31C43F9404FEA1C4900FA9C
:1005400006F3B1FBF9F8200C1FFA8CFE09FB181119
:1005500040EA014108FB0EF0884202FA06F20BD98C
:100560001CEB010108F1FF3A80F08880884240F2DC
:100570008580A8F102086144091AA4B2B1FBF9F020
:1005800009FB101144EA014100FB0EFE8E4508D91B
:100590001CEB010100F1FF346CD28E456AD90238A0
:1005A000614440EA0840A0FB0294A1EB0E01A14285
:1005B000C846A64656D353D05DB1B3EB080261EBF3
:1005C0000E0101FA07F722FA06F3F1401F43C5E9CD
:1005D000007100263146BDE8F087C2F12003D84003
:1005E0000CFA02FC21FA03F3914001434FEA1C4745
:1005F0001FFA8CFEB3FBF7F007FB10360B0C43EA37
:10060000064300FB0EF69E4204FA02F408D91CEBE6
:10061000030300F1FF382FD29E422DD902386344E4
:100620009B1B89B2B3FBF7F607FB163341EA034184
:1006300006FB0EF38B4208D91CEB010106F1FF38D3
:1006400016D28B4214D9023E6144C91A46EA0046CA
:1006500038E72E46284605E70646E3E61846F8E65C
:100660004B45A9D2B9EB020864EB0C0E0138A3E7A5
:100670004646EAE7204694E74046D1E7D0467BE786
:10068000023B614432E7304609E76444023842E7FE
:10069000704700BFFEE700BF0B480C4A904203D0F2
:1006A000121A0B4911F004FB0A480B4A904203D07E
:1006B000121A002111F00AFB04F0DCFC11F0D4FA4C
:1006C00000F008FDFEE700BF00000024F403002452
:1006D00070280108F8030024E4330024704700BFA9
:1006E000704700BF704700BF704700BF30B4114C67
:1006F00020221148236801E0013A06D00133202B63
:10070000A8BF0023C15C0029F6D00C4A0C4852F85F
:1007100023200C4D07EE902A50F823002360F8EEBA
:10072000677A0949094B2A600860C3ED007A30BC3A
:10073000704700BF8C0400248C0500240C050024A5
:10074000AC0500249C06002414000024700600243C
:100750002DE9F04F0224A5B009264FF00A098DF8C3
:1007600028404FF00B088DF829604FF0000ABDF8C3
:1007700028300822764F01258DF824404FF0070BD2
:100780008DF825903846ADF80430BDF824308DF84A
:100790001DA08DF81C408DF820408DF82180079910
:1007A000ADF800300294089B02F0D8FB03238DF8CB
:1007B000384007F112008DF82D3008228DF839608D
:1007C000BDF838308DF834408DF83590ADF80430F0
:1007D000BDF834308DF82CA08DF830408DF8318084
:1007E0000B99ADF8003002940C9B02F0B7FB8DF82A
:1007F00048408DF8496007F12400BDF848300822D0
:100800008DF844408DF84590ADF80430BDF8443083
:100810008DF840408DF841808DF83C508DF83D506A
:100820000F99ADF800300294109B02F097FB8DF801
:1008300058408DF8596007F13600BDF8583008224D
:100840008DF854408DF85590ADF80430BDF8543013
:100850008DF84CA08DF850408DF851808DF84DB03A
:100860001399ADF800300294149B02F077FB8DF8D9
:1008700068408DF8696007F14800BDF868300822CB
:100880008DF85CA04FF0060A8DF864408DF86590F5
:10089000ADF80430BDF864308DF860408DF86180AB
:1008A0008DF85DA01799ADF800300294189B02F006
:1008B00055FB8DF878408DF879600822BDF87830C6
:1008C00007F15A008DF875908DF87440ADF804303A
:1008D000BDF874308DF871808DF86C408DF86D50D6
:1008E0008DF870401B99ADF8003002941C9B02F00B
:1008F00035FB9FED180A8DF87C508DF87DB01F995F
:1009000015488DED050A02F00FFB8DF880508DF82B
:1009100081A09DED050A2099104802F005FB0822F0
:1009200005238DF884508DF885208DF888508DF83A
:1009300089308DF88C508DF88D609FED090A2199D2
:100940000848DDE9222325B0BDE8F04F02F0BCBA2B
:100950001804002400007A44540600247C06002475
:1009600000000000900400240F4B00200F4A0021DB
:1009700010B50F4C18600F4811F0A8F9224600215D
:100980000D4811F0A3F9224600210C4811F09EF900
:10099000224600210A4811F099F92246002109480F
:1009A000BDE8104011F092B97006002400905F017C
:1009B00000983A000060EAC000C8AFC0003075C0BF
:1009C00000983AC0000000C01D4B1E491E4AD3EDDE
:1009D000007AD1ED006A92ED007A77EEA67AB8EE51
:1009E000477A10B4F4EEC77AC3ED007AF1EE10FA4C
:1009F0001DDCBDEEE77A17EE101AB8EE477A4A1CF6
:100A000077EEC77A114B124C03EB8202114803EBCD
:100A10008103216092ED007A93ED000A5DF8044BAA
:100A200037EE407AC0ED007AA7EE270A70479FEDB7
:100A30000A7A01220021F0EE477A83ED007AE1E79D
:100A4000B8040024080000240C0000240060EAC060
:100A5000C0040024BC040024000000002DE9F04381
:100A6000454F4FF00009454B3868CC46DFF83881D8
:100A700007EE900ADFF834E1D3ED003AF8EE674A6A
:100A800098ED005ADEF800303D4EB0EE644A3D4D20
:100A9000F0EE647ABDEEE77AB8EE456A17EE104ADA
:100AA000F8EE476A05EB840177EEE66A91ED007A8D
:100AB00077EEA37AD1ED015A75EEC75AF4EEC67AF5
:100AC000A6EEA57AF1EE10FAA6EC017A1BDB202245
:100AD0002D4801E0013A06D00133202BA8BF0023A6
:100AE000C15C0029F6D029494FF00109284A51F884
:100AF000230002EB830207EE900A92ED005AF8EE13
:100B0000674AF0EE647AB4EE674AF1EE10FA1AD052
:100B10000CF1010C1F4A9445BCD11F491F4A0C60BF
:100B20001F49C2ED007AC1ED006AB9F1000F1FD074
:100B3000B0EE644A88ED005ACEF80030386082ED9D
:100B4000004ABDE8F0831449144A0C601449C2ED10
:100B5000007AC1ED006AB9F1000F06D0B0EE644A28
:100B6000CEF8003088ED005A38600E4BC3F800C054
:100B700082ED004ABDE8F0839C06002408000024B2
:100B800000C8AFC00060EAC08C0500240C0500243A
:100B9000AC05002400A60E00780600247006002490
:100BA0007406002410000024140000248C04002487
:100BB0001D4B1E491E4AD3ED007AD1ED006A92ED1D
:100BC000007A77EEA67AB8EE477A10B4F4EEC77AD8
:100BD000C3ED007AF1EE10FA1DDCBDEEE77A17EEF8
:100BE000101AB8EE477A4A1C77EEC77A114B124CAE
:100BF00003EB8202114803EB8103216092ED007A3E
:100C000093ED000A5DF8044B37EE407AC0ED007AB0
:100C1000A7EE270A70479FED0A7A01220021F0EE25
:100C2000477A83ED007AE1E790060024080000246B
:100C30001000002400C8AFC09806002494060024C9
:100C400000000000DFF810C1394BDCF80000D3EDE4
:100C5000003A07EE900AF8EE674A2DE9F043DFF814
:100C6000FC80B0EE644ADFF8F8E0F0EE647A98EDCC
:100C7000005A4FF00009DEF800302E4D2E4F2F4E57
:100C8000BDEEE77AB8EE456A17EE104AF8EE476A0D
:100C900006EB840177EEE66A91ED007A77EEA37AAF
:100CA000D1ED015A75EEC75AF4EEC67AA6EEA57AD2
:100CB000F1EE10FAA5EC017A1BDB2022204801E0BE
:100CC000013A06D00133202BA8BF0023C15C0029C4
:100CD000F6D01C494FF001091B4A51F8230002EBE2
:100CE000830207EE900A92ED005AF8EE674AF0EEA2
:100CF000647AB4EE674AF1EE10FA01D0BD42BFD17A
:100D00001249134A0C601349C2ED007AC1ED006A22
:100D1000B9F1000F07D0B0EE644A88ED005ACEF862
:100D20000030CCF8000082ED004ABDE8F08300BF3F
:100D300008000024003075C000C8AFC00060EAC0E1
:100D40008C0500240C050024AC0500247806002442
:100D500070060024740600249C060024140000245D
:100D60008C040024DFF810C1394BDCF80000D3ED0F
:100D7000003A07EE900AF8EE674A2DE9F043DFF8F3
:100D8000FC80B0EE644ADFF8F8E0F0EE647A98EDAB
:100D9000005A4FF00009DEF800302E4D2E4F2F4E36
:100DA000BDEEE77AB8EE456A17EE104AF8EE476AEC
:100DB00006EB840177EEE66A91ED007A77EEA37A8E
:100DC000D1ED015A75EEC75AF4EEC67AA6EEA57AB1
:100DD000F1EE10FAA5EC017A1BDB2022204801E09D
:100DE000013A06D00133202BA8BF0023C15C0029A3
:100DF000F6D01C494FF001091B4A51F8230002EBC1
:100E0000830207EE900A92ED005AF8EE674AF0EE80
:100E1000647AB4EE674AF1EE10FA01D0BD42BFD158
:100E20001249134A0C601349C2ED007AC1ED006A01
:100E3000B9F1000F07D0B0EE644A88ED005ACEF841
:100E40000030CCF8000082ED004ABDE8F08300BF1E
:100E50000800002400983AC0003075C00060EAC065
:100E60008C0500240C050024AC0500247806002421
:100E700070060024740600249C060024140000243C
:100E80008C040024DFF810C1394BDCF80000D3EDEE
:100E9000003A07EE900AF8EE674A2DE9F043DFF8D2
:100EA000FC80B0EE644ADFF8F8E0F0EE647A98ED8A
:100EB000005A4FF00009DEF800302E4D2E4F2F4E15
:100EC000BDEEE77AB8EE456A17EE104AF8EE476ACB
:100ED00006EB840177EEE66A91ED007A77EEA37A6D
:100EE000D1ED015A75EEC75AF4EEC67AA6EEA57A90
:100EF000F1EE10FAA5EC017A1BDB2022204801E07C
:100F0000013A06D00133202BA8BF0023C15C002981
:100F1000F6D01C494FF001091B4A51F8230002EB9F
:100F2000830207EE900A92ED005AF8EE674AF0EE5F
:100F3000647AB4EE674AF1EE10FA01D0BD42BFD137
:100F40001249134A0C601349C2ED007AC1ED006AE0
:100F5000B9F1000F07D0B0EE644A88ED005ACEF820
:100F60000030CCF8000082ED004ABDE8F08300BFFD
:100F700008000024000000C000983AC00060EAC0E9
:100F80008C0500240C050024AC0500247806002400
:100F900070060024740600249C060024140000241B
:100FA0008C04002426480023264990ED006A264A36
:100FB000B8EE466ADFED256A10B4DFED257A01331D
:100FC000B7EE007A66EEA75A06EE903A202BF8EEBE
:100FD000E66AA6EE257A66EEA77A67EE867ABCEE1A
:100FE000C77AFCEEE77A17EE100A41F8040F17EE05
:100FF000900A42F8040FE0D14FF0FF32154801E0AB
:10100000013B06D00132202AA8BF0022815C0029C2
:10101000F6D0114B114C53F82230114907EE903A9B
:10102000104851F82210F8EE677A226003600E4AE9
:101030000E4B5DF8044B1160C3ED007A704700BFA2
:101040000C00002408050024A8050024000000006E
:101050000000003D8C0500240C0500248C040024B5
:10106000AC0500249C060024140000247006002413
:10107000164A002316481188B2F804C0042200B5AD
:1010800085B04FF0020EADF8041001218DF800304C
:101090008DF80B1069468DF801308DF802308DF80F
:1010A00003E0ADF806C08DF808308DF809308DF8F2
:1010B0000A308DF80C308DF80D2000F09FFE0448AA
:1010C00000F0FCFE05B05DF804FB00BFB825010888
:1010D0002C06002408B50021274800F0E7FB042176
:1010E000254800F00BFB0321234800F0EBFA234EC8
:1010F000FFF7BEFF224DFFF72BFB042306222149F9
:10110000214801F065FF204802F070F91F4CFFF7FD
:101110002BFC1F49184800F0D1FA1BE0012B26D008
:10112000002201211B4800F0C1FED5ED007A1948CC
:10113000FDEEE77A17EE901A00F0BAFD08220121C1
:10114000144800F0B3FE1348216800F0B1FD3220CE
:1011500003F0AAFD00220F48114600F0A7FE3378E5
:10116000002BDBD10C490B4800F042FDD8E70B49BE
:10117000084800F03DFDD3E7C40400244C060024D9
:10118000A006002418040024DC040024A406002483
:10119000951400082C060024F425010808260108EF
:1011A00070B55A4D0024E2B205215948013402F0CD
:1011B00033F9F6EE007AB4EEE70AF1EE10FA4CBF1E
:1011C00001230023082C05F8013FECD1514C524D6E
:1011D000A078002841D0AB78002B3ED14F4A137045
:1011E0002378002B45D02B78002B4AD14C4E3378F6
:1011F000002B00F082804B4B00221A704A4B03F107
:10120000200101E0994274D013F8012B002AF9D093
:1012100001233370002861D0AB78002B48D063786D
:10122000002B4BD06B78002B3AD0237913B12B795C
:10123000002B32D063790BB16B795BB3A3790BB11F
:10124000AB7923B3E3791BB1EB790BB9FFF71AFE46
:1012500094E8030085E8030070BDE378002BBFD05D
:10126000EB78002BBCD12D4B01221A702378002B78
:10127000B9D12E4BD3ED007AF5EE407AF1EE10FAAB
:1012800039D0284B1B78002BC4D1254EB6E7FFF789
:1012900069FDD7E7FFF7D6FCD0E7FFF7DFFBC9E72B
:1012A000012223490A7023490A60234A1360BCE7DC
:1012B000224B01221A706378002BB3D16A78002A7E
:1012C000B3D01B491C4A0B701D4912680B601D49A5
:1012D000184B0A601A60FFF765FEA6E71A4BD3EDBC
:1012E000007AF5EE407AF1EE10FA98D1134B1870AF
:1012F00095E732708EE70A4E7DE70C4A0021012304
:101300001160084A3370137084E700BF830400241F
:10131000DC04002484040024680600244C06002415
:1013200008050024640600248C050024B804002469
:1013300009050024A40600244806002414040024FF
:10134000A80600240C0000249006002438B52A4D7D
:1013500000240121E2B229480C4402F05DF8F6EEC7
:10136000007AB4EEE70AF1EE10FA4CBF0123002335
:10137000082C05F8013FECD1214D0024E2B20221F6
:101380001E48013402F048F8F6EE007AB4EEE70A9F
:10139000F1EE10FA4CBF01230023082C05F8013BA5
:1013A000ECD1184D0024E2B203211448013402F0BC
:1013B00033F8F6EE007AB4EEE70AF1EE10FA4CBF1D
:1013C00001230023082C05F8013BECD10E4D00242D
:1013D000E2B204210948013402F01EF8F6EE007A68
:1013E000B4EEE70AF1EE10FA4CBF01230023082CFB
:1013F00005F8013BECD138BD8B050024DC0400244A
:10140000940500249C050024A405002410B52DEDAE
:10141000028BFFF79BFF00221948B0EE008A1146AD
:10142000184C01F0F9FFDFED186AB2EE047A174BA1
:10143000F0EE667A012200211148E0EE087AC7FE3C
:10144000A67AC7FEC87A27EE877AC4ED007A83EDC4
:10145000007A01F0E1FFB6EE007A0D4BF7EE086A74
:1014600020EE000AF0EE477AE0EE267AC7FE877A91
:10147000C7FEC87ABDEC028BC3ED007A10BD00BF79
:10148000DC0400240400002400000000A006002466
:10149000080000242DE9F04F144683B081468A46A7
:1014A0000192FFF7B3FF002C00F0A6800024574DF7
:1014B000574EDFF898B1574F1BE0574B1B78002B66
:1014C00040F0938095ED000A37EE800AD7ED007A60
:1014D0000134DAE9002320EE270A4344424486ED32
:1014E000000A82ED000A83ED000A019BA34200F08E
:1014F000838000234FEA84082B603360FFF750FE9F
:10150000B6EE000A454BD9E900121B7801EB8401C5
:1015100002EB8402D1ED007A92ED007A77EE877AC1
:1015200067EE807ACBED007A63B13D483D490368B0
:101530003D4A01EB8301013303601368C1ED007A7A
:1015400001331360394B1B78002BB6D0384B03F1B5
:10155000200101E0994252D013F8012B002AF9D062
:101560003449354B91ED007AD3ED006ABDEEC76A80
:101570002C4A77EE266A16EE103AB8EE466AC1EDAE
:10158000006A02EB83002D4A37EE467A90ED000A9E
:1015900090ED016A36EE406AA7EE060A92ED006A07
:1015A000274AB8EE466A1360264BF4EEC66A85ED0C
:1015B000000A83ED007AF1EE10FA08DBFFF796F8E7
:1015C0001C49DBED007AD1ED006A95ED000A1E4B57
:1015D00093ED007AB8EE477AB4EEE67AF1EE10FABF
:1015E0007FF572AF00230B606EE7FFF7E1FADBEDEA
:1015F000007A85ED000A67E703B0BDE8F08FFFF7DA
:10160000E3F9DBED007A85ED000A5DE78C06002446
:1016100050060024040000241404002409050024BA
:10162000A80600240060EAC048060024080500243B
:101630008C050024700600240800002414000024F7
:1016400078060024740600240C00002404050024FD
:1016500010B5104C104A1149114810F0F1FA21460A
:101660000D4A104810F0ECFA21460B4A0E4810F0D3
:10167000E7FA094A0D490E4810F0E2FA0D48002336
:10168000054A0D49036043610362C363BDE810402E
:1016900010F0D6BADD06000800000024E1060008BC
:1016A00090040024540600247C060024E50600086B
:1016B0002C060024C4040024E9060008143001F0BC
:1016C000CFBB00BF38B500F1140504462DED028BE9
:1016D000284601F081FB284601F07AFB2846B0EE4F
:1016E000408A01F063FBD0ED007AF8EE677A88EE6D
:1016F000277ABDEC028B84ED0E7A38BD38B500F147
:10170000140504462DED028B284601F053FB2846B4
:1017100001F05EFB2846B0EE408A01F047FBD0EDB9
:10172000007AF8EE677A88EE277ABDEC028B84EDBA
:101730000E7A38BD10B540F203338EB000244FF658
:101740000B7240F20341ADF8083009A80123ADF84F
:101750001020ADF824202246ADF80C100094029918
:1017600007940C94CDE90544CDE90A4401F05CFFEF
:1017700004A8012322460399009401F055FF09A80B
:1017800002F038F810B901200EB010BD04A802F024
:1017900031F8A0420CBF022020460EB010BD00BFA1
:1017A0002DE9F04103239AB0012700240646CDE934
:1017B00014373B4BCDE9104340F20453CDE91647B3
:1017C000ADF84830FFF7B6FFB842054625D00228ED
:1017D00045D040F60132334B0DF12C081894ADF88A
:1017E0002C200B981997CDF84A3000F0E3F810A997
:1017F00006F13C0003F038F8302003224FF07E530E
:1018000041460D930E93CDE90B02F26B06F11400E5
:1018100001F094FA1AB0BDE8F0811023214A06A91C
:1018200006908DF828300DF12C081F4BCDF84A207A
:1018300007930294CDE91804CDE9080402A802F048
:101840004BFA0823029A03A94046ADF80C508DF8D4
:101850000E40049505930B9400F0ECF8C7E70020C8
:101860000121104B0DF12C083A460094CDF84A3076
:101870004FF60B730C94ADF82C302346CDE91801CC
:1018800040F601314046ADF818100699CDE90D44F7
:1018900001F0CAFE2146404601F0B8FFA7E700BFAD
:1018A00004020404040604030704010B2DE9F047B5
:1018B00004462DED028B82B000294DD0012140F26B
:1018C000011200230091ADF804208DF80630364A4D
:1018D0000127364B04F10409354904F129086260F7
:1018E00040F20272A36040F60663E16004F1250A4B
:1018F000A4F82520A4F82930278284F8277084F8DA
:101900002B7003F06DFB054603F0D0F969460646DF
:1019100050BB4DB304F130008DF8067003F0E8FAC7
:10192000072D3CD104F114052046FFF739FF284666
:1019300001F04EFA2846B0EE408A01F037FAD0EDB9
:10194000007AF8EE677A88EE277A84ED0E7A02B094
:10195000BDEC028BBDE8F08740F2011300918DF8D9
:101960000610ADF80430B2E704F1300003F0C0FA1D
:10197000072D11D04946204602F0F6FB0EB9002D86
:10198000D0D1504601F04CFF404601F049FF04F130
:10199000120000F0E3FAC5E7002EF2D1C2E7494693
:1019A000204602F0E1FBBDE705080509050705062D
:1019B000050A060610B584B003460124ADF80400FC
:1019C00003A8ADF80C30ADF80E4001F029FF214618
:1019D00003A802F001F8204603F066F9002103A8ED
:1019E00001F0FAFF204603F05FF9214603A801F059
:1019F000F3FF04B010BD00BF10B5C2F3002384B0E4
:101A00000C46017C8DF80D2043EA4402FA2402239F
:101A10008DF80C2003AA009402F0F4F918B1012407
:101A2000204604B010BD04460A2003F03DF92046CC
:101A300004B010BD034670B543F8042B044684B0CF
:101A400007C983E80700A37983B91A210B461E2230
:101A5000FA2523742046ADF80C20022303AA009532
:101A600002F0D0F928B1012004B070BD1B210B4653
:101A7000EDE70A2003F018F94FF4B852009502235D
:101A8000ADF80C20204603AA217C02F0BBF9002807
:101A9000E9D10A2003F008F941F20272009502230D
:101AA000ADF80C20204603AA217C02F0ABF90028F7
:101AB000D9D10A2003F0F8F8042200950223ADF8EA
:101AC0000C20204603AA217C02F09CF90028CAD1F0
:101AD0000A2003F0E9F8062200950223ADF80C2055
:101AE000204603AA217C02F08DF90028BBD10A20F0
:101AF00003F0DAF841F2082200950223ADF80C2039
:101B0000204603AA217C02F07DF90028ABD10A20EF
:101B1000064603F0C9F80095022303AA217C20465B
:101B2000ADF80C6002F06EF900289CD1304603F04D
:101B3000BBF8009522790C232046002A8DF80C3042
:101B400003AA4FF0020314BF622142218DF80D1049
:101B5000217C02F057F9002885D1304603F0A4F823
:101B60002279D4E902310B43DBB20AB943F04003D6
:101B700062790AB143F020030E22FA258DF80D3068
:101B80002046009502238DF80C2003AA217C02F048
:101B900039F900287FF467AF0A2003F085F8102296
:101BA00000950223ADF80C20204603AA217C02F008
:101BB00029F900287FF457AF0A2003F075F81221A5
:101BC00000950223ADF80C1003AA217C204602F0F8
:101BD00019F900287FF447AF0A2003F065F80122C5
:101BE00009212046FFF708FF003818BF01203BE716
:101BF0002DE9F04F00278846821C861DFCB22DED92
:101C0000028B83B008EE102A01904046FEF768FB75
:101C1000A04247D9019B012118F8044018EE100A90
:101C200003F10A054FF0000A4FEA141BA94601F020
:101C3000D3FE4BFA0AF10AF1010A484609F10409F8
:101C400001F0010101F0C8FEBAF1040FF1D1012148
:101C5000304604F00F0B002401F0BEFE012003F01B
:101C600023F82146304601F0B7FE4BFA04F1013467
:101C70002846043501F0010101F0AEFE042CF4D138
:101C800001213046013701F0A7FE012003F00CF8D6
:101C900000213046FCB201F09FFE4046FEF720FBDB
:101CA000A042B7D803B0BDEC028BBDE8F08F00BFF7
:101CB0002DE9F04F044687B04FF000080A46019026
:101CC00004F1020A2B4903A8A71D5FFA88F410F05B
:101CD00005F803A8FEF704FBA04248D904F1180355
:101CE000019A012150466B4402F10A05002413F8C1
:101CF0000C6CA9464FEA161B01F06EFE4BFA04F17C
:101D00000134484609F1040901F0010101F064FEC3
:101D1000042CF3D101213846002401F05DFE01209E
:101D200006F00F0602F0C0FF2146384601F054FECF
:101D300046FA04F101342846043501F0010101F0AE
:101D40004BFE042CF4D10121384608F1010801F0C2
:101D500043FE012002F0A8FF002138465FFA88F414
:101D600001F03AFE03A8FEF7BBFAA042B6D807B0CE
:101D7000BDE8F08F1C2601082DE9F8430F4600F15D
:101D80000A05002400214FEA17192E46804602302A
:101D900001F022FE49FA04F101343046043601F024
:101DA000010101F019FE042CF4D108F1060801210B
:101DB00007F00F070024404601F00EFE012002F05C
:101DC00073FF0021404601F007FE47FA04F1013499
:101DD0002846043501F0010101F0FEFD042CF4D188
:101DE0000121404601F0F8FD012002F05DFF404670
:101DF0000021BDE8F84301F0EFBD00BF70B54B888E
:101E0000044601250E4663800230A58001F008FDDE
:101E1000B388A01D2581E38001F002FDF38804F161
:101E20000A00A581638101F0FBFC338904F10E00F7
:101E30002582E38101F0F4FC738904F11200A5828C
:101E4000638201F0EDFCB38904F116002583E3827F
:101E500001F0E6FC33882846238002F025FF204667
:101E60003321FFF789FF20463221FFF785FF282124
:101E70002046FFF781FF284602F016FF294620463C
:101E8000FFF77AFF227863782046002A14BF0E21DC
:101E90000C211943FFF770FF20460621FFF76CFF66
:101EA0002846BDE8704002F0FFBE00BF01290CBF0C
:101EB000C02180211144C9B2FFF75EBF0121FFF7A5
:101EC0005BBF00BFF0B5102387B0234C0122002573
:101ED0000126002702A920460195CDE902234FF4EF
:101EE0008052CDE9046709F033FE642003F01EFB45
:101EF00002A94FF480522046CDE90467022610273C
:101F0000CDE9026709F024FE0322102302A920462E
:101F1000CDE9022300230422CDE904234FF48052AB
:101F200009F016FE40F23223042202A90193102385
:101F30002046CDE90223019A012305924FF48052F5
:101F4000049309F005FE40F60601204609F020FE44
:101F5000284607B0F0BD00BFB40600241C4B002289
:101F60001C494FF0400C30B5054689B0022059603D
:101F700007219A601A620124DA620A224FF4006E85
:101F8000DC6006922022CDE9000104200821CDE981
:101F9000020103201021CDE9040108206946C3E9AC
:101FA00004024FF4C072181DC3E906C24FF48052F8
:101FB000C3E909E209F0A2FD38B92846FFF782FF1C
:101FC000003818BF012009B030BD204609B030BD2F
:101FD000B006002440410052614A0021D0B5136888
:101FE0008EB00A91002B40F0B9805E4B01214FF674
:101FF00083700C2411600221D3F8D420002603271B
:1020000042F48052C3F8D420D3F8D42002F4805292
:102010000092009AD3F8E02042F01002C3F8E020CA
:10202000D3F8E02002F010020192019AD3F8E020E8
:1020300042F04002C3F8E020D3F8E02002F0400272
:102040000292029AD3F8E02042F00802C3F8E0209E
:10205000D3F8E02002F008020392039AD3F8E020BC
:1020600042F48072C3F8E020D3F8E02002F48072DA
:102070000492049AD3F8E02042F08002C3F8E020F2
:10208000D3F8E02002F080020592059AD3F8E02010
:1020900042F02002C3F8E020D3F8E02002F0200252
:1020A0000692069AD3F8E02042F00402C3F8E0203A
:1020B000D3F8E0300C9403F0040307930323079A4A
:1020C0000B93CDE9080108A9274805F0B5F848F2B7
:1020D0003712022308A925480C94CDE90823CDE93D
:1020E0000A6705F0A9F84CF20372022308A92048F8
:1020F0000C94CDE90823CDE90A6705F09DF840F27C
:10210000FF62022308A91B480C94CDE90823CDE9FE
:102110000A6705F091F84FF60C72022308A91648D9
:102120000C94CDE90823CDE90A6705F085F84FF650
:102130003F02022308A911480C94CDE90823CDE9F8
:102140000A6705F079F82022022308A90A480C94AE
:10215000CDE90A67CDE9082305F06EF80EB0D0BDD1
:10216000AC0600240044025800100258001802581F
:10217000000C025800200258001C0258001402589B
:102180002DE9F04FDFF8108406460D46144608F19D
:1021900018002DED028B89B000AF02F05DFCD8F87D
:1021A000183073B3D8F81C30D8F80490002B43696A
:1021B0000BBF4FF0080A4FF0100A4FF0020B4FF020
:1021C000040BB9F1000F2AD0A200EA46012B02F15C
:1021D000070222F00702ADEB020D6846ADEB020DDF
:1021E000694600F03F81022B00F0D680002B6FD0B3
:1021F0002246C847D5462437BD46BDEC028BBDE814
:10220000F08FD8F81C30002BF5D0D8F804904FF0A0
:10221000080A4FF0020B4369B9F1000FD4D1FB61FA
:10222000D8F80030BB61002BE5D0D54802F086FC21
:102230006B46BBF1020F786108EE103AFB6900F0C3
:1022400083816A465146A2EBC40295466200EA4683
:10225000B2FBFBF2AAEBC40085460AEB8200EE4615
:10226000F861ADEB010DF8690EEB820CC7F810C0F8
:10227000EC46ADEB010D00EB8201CCF80400CCF88C
:10228000081001EB82013869E946CCF80C1000EB2C
:102290008201CCF800A001EB8202C9E900E0C9E9A3
:1022A0000212012B00F06483022B00F06C82002BE1
:1022B00000F08081620849466046BB69984718EE85
:1022C000103A24379D46BD46BDEC028BBDE8F08F29
:1022D000002C8DD01A46D8ED0C6A9FEDB27A844658
:1022E000331D36F922E00CF1080C07EE90EA33F9C1
:1022F00022E00232F8EEE77A944267EE877A67EEE0
:10230000A67A4CED027A07EE90EAF8EEE77A67EEED
:10231000877A67EEA67A4CED017AE2D8F961224617
:10232000C847984ED8ED0D6A0020F9692B1D9FED26
:102330009E7A9FED9E6ADFED9E5A22E0F4EEC67A09
:10234000F1EE10FAC0F2C88447F6FE72D1ED017AC0
:1023500045F8202066EEA77AF4EEC77AF1EE10FA7F
:1023600040F2F080F4EEC67AF1EE10FAC0F2D584B5
:1023700047F6FE7243F820200230083184427FF68F
:1023800039AFD1ED007A66EEA77AF4EEC77AF1EEB6
:1023900010FAD3D83246D9E7002C3FF429AFD8ED54
:1023A0000C6A84469FED787A0022331D8E4656F8DB
:1023B00022100CF1080C07EE901A53F8221002328A
:1023C000F8EEE77A944267EE877A67EEA67A4CEDEC
:1023D000027A07EE901AF8EEE77A67EE877A67EEF0
:1023E000A67A4CED017AE2D871462246C7F81CE085
:1023F000C847664ED8ED0D6A0020F9692B1D9FED88
:102400006A7A9FED6A6ADFF894C120E0F4EEC67A3A
:10241000F1EE10FAC0F279843246D1ED017A45F836
:10242000202066EEA77AF4EEC77AF1EE10FA40F2B9
:102430008780F4EEC67AF1EE10FAC0F25E8432467E
:1024400043F820200230083184427FF6D3AED1ED2C
:10245000007A66EEA77AF4EEC77AF1EE10FAD5D8D4
:102460006246DAE7002C3FF4C3AED8ED0C6A86462C
:102470009FED477A4FF0000C331D56F82C200EF1DB
:10248000080E82F40002A2F5000207EE902A53F82B
:102490002C200CF1020CF8EEE77A82F4000264457D
:1024A000A2F5000267EE877A67EEA67A4EED027A11
:1024B00007EE902AF8EEE77A67EE877A67EEA67A5B
:1024C0004EED017AD9D8F9612246C847314ED8ED90
:1024D0000D6A0020F9692B1D9FED337A9FED336A59
:1024E000DFF8BCC01FE0F4EEC67AF1EE10FAC0F2DD
:1024F000FC833246D1ED017A45F8202066EEA77ABA
:10250000F4EEC77AF1EE10FA18D9F4EEC67AF1EECD
:1025100010FAC0F2DA83324643F820200230083144
:1025200084427FF667AED1ED007A66EEA77AF4EECC
:10253000C77AF1EE10FAD6D86246DBE76246EBE7DF
:1025400062467DE7324615E7A100D64662080731AC
:1025500021F00701ADEB010DEA46ADEB010D694637
:10256000ADEB0E0D0AEB8200EC46ADEB0E0D01EB70
:102570008202F861E946CCE900A0C9E9001290E6C0
:10258000040700240280FFFF000000300082FF7F6C
:102590000000003482FF7F00E8060024007E0080F7
:1025A0007E0080FF0000003804FF7FBF04FF7F3FF4
:1025B00000FEFF46002C00F0C982BBF1020FD8F8E4
:1025C000242000F0FA827969C7F8049002EB810EAA
:1025D0005FED0C5A8A00DCF808100EF104007A61F5
:1025E0001A46DCF80C303B61331DD7F810903D6182
:1025F000FD69C7E902CB8C46834636F92210D8ED37
:102600000C7A06EE101A33F9221006EE901A3EF9F3
:102610002210B8EEC66A07EE101AF8EEE66A3BF929
:102620002210B8EEC77A26EE256A66EEA56A27EE76
:10263000257A26EE276A66EEA76A27EE277A07EE46
:10264000901A51080232F8EEE77A0AEB81009442C0
:1026500080ED006A05EB810067EEA57AC0ED006AA7
:102660000CEB810009EB810180ED007A98ED0C7A8A
:1026700067EE877AC1ED007ABFD8D7F804903D693C
:10268000D7E902CB60466208BB6949469847D8F84B
:102690002C307A69D8ED0D6A1A441FED3D7A1FED92
:1026A0003D6A2B1D904602F1040A5FED3F5A00225D
:1026B000A84ED9E900EC51E0F4EEC67AF1EE10FA3A
:1026C000C0F2C78247F6FE7045F822000CEB01000D
:1026D000D0ED007A66EEA77AF4EEC77AF1EE10FA42
:1026E0004BD9F4EEC67AF1EE10FAC0F2BA8247F690
:1026F000FE70BBF1020F43F822002BD0D9F808007E
:102700000844D0ED007A66EEA77AF4EEC77AF1EECF
:1027100010FA36D9F4EEC67AF1EE10FAC0F2CD8294
:1027200047F6FE7048F82200D9F80C000144D1EDBC
:10273000007A66EEA77AF4EEC77AF1EE10FA1ED9A7
:10274000F4EEC67AF1EE10FAC0F2AF8247F6FE71EF
:102750004AF82210023294427FF6B1AD51080EEBD6
:1027600081008900D0ED007A66EEA77AF4EEC77A90
:10277000F1EE10FAA0D83046A6E73046B9E7314668
:10278000E6E73046CEE7002C00F0E081BBF1020F17
:10279000D8F8243000F0E1817A69DCF8081003EB06
:1027A000820EC7F804909300DFED6B5A0EF104001F
:1027B00000227B61DCF80C303B61331DD7F81090B0
:1027C0003D61FD69C7E902CB8C46834656F822106D
:1027D000D8ED0C7A07EE101A53F82210B8EEC76A3B
:1027E00007EE101A5EF82210F8EEC76A07EE101A0C
:1027F00026EE256A5BF82210B8EEC77A66EEA56A67
:1028000026EE276A27EE257A66EEA76A27EE277A54
:1028100007EE901A51080232F8EEE77A0AEB8100CF
:10282000944280ED006A05EB810067EEA57AC0ED69
:10283000006A0CEB810009EB810180ED007A98EDD4
:102840000C7A67EE877AC1ED007ABFD8D7F804908A
:102850003D69D7E902CB60466208BB6949469847A3
:10286000D8F82C307A69D8ED0D6A1A449FED3E7A7B
:102870009FED3E6A131D9246DFF8E4C00022FB6123
:102880002B1D364ED9E9008E4EE0F4EEC67AF1EEFD
:1028900010FAC0F2FC81304645F822000EEB010030
:1028A000D0ED007A66EEA77AF4EEC77AF1EE10FA70
:1028B00049D9F4EEC67AF1EE10FAC0F2EF81304653
:1028C000BBF1020F43F822002AD0D9F808000844CF
:1028D000D0ED007A66EEA77AF4EEC77AF1EE10FA40
:1028E00035D9F4EEC67AF1EE10FAC0F2C98130465D
:1028F0004AF82200D9F80C000144D1ED007A66EEC6
:10290000A77AF4EEC77AF1EE10FA1ED9F4EEC67A81
:10291000F1EE10FAC0F2AD813146F86940F82210AC
:10292000023294427FF6CBAC510808EB810089005B
:10293000D0ED007A66EEA77AF4EEC77AF1EE10FADF
:10294000A3D86046A8E76046BAE76146E5E7604677
:10295000CEE700BF0280FFFF000000300082FF7F53
:10296000007E00800000003404FF7FBF04FF7F3F33
:10297000002C00F0EB807A690021D8F82430C7F8E9
:10298000109003EB820ED7F81C909300FD610EF1BE
:1029900004021FED0C6A7B61331D154656F8212099
:1029A0004808D8ED0C6ABBF1020F82F40002A2F5D0
:1029B000000207EE902A53F8212082F40002B8EEBC
:1029C000E77AA2F5000227EE067A07EE902A0AEBD4
:1029D0008002F8EEE77A27EE267A67EE867A82EDB5
:1029E000007A09EB80024FEA800067EEA67AC2ED1A
:1029F000007A27D05EF8212082F40002A2F50002BE
:102A000007EE902A55F8212082F40002B8EEE77A0A
:102A1000A2F5000227EE067A07EE902ADCF80820DD
:102A2000F8EEE77A024427EE267A67EE867A82EDA0
:102A3000007A98ED0C7ADCF80C2067EE877A024475
:102A4000C2ED007A02318C42A8D8D7F810906046C7
:102A50006208BB694946FD699847D8F82C307A6905
:102A6000D8ED0D6A1A441FED407A1FED406A131D20
:102A70009246DFF8C4C20022FB612B1DAB4ED9E9A0
:102A8000008E4EE0F4EEC67AF1EE10FAC0F2C58088
:102A9000304645F822000EEB0100D0ED007A66EEDC
:102AA000A77AF4EEC77AF1EE10FA49D9F4EEC67AB5
:102AB000F1EE10FAC0F2BF803046BBF1020F43F8CE
:102AC00022002AD0D9F808000844D0ED007A66EE3A
:102AD000A77AF4EEC77AF1EE10FA35D9F4EEC67A99
:102AE000F1EE10FAC0F2AE8030464AF82200D9F872
:102AF0000C000144D1ED007A66EEA77AF4EEC77AB5
:102B0000F1EE10FA1ED9F4EEC67AF1EE10FAC0F228
:102B10008B803146F86940F82210023294427FF6E9
:102B2000CEAB510808EB81008900D0ED007A66EE4B
:102B3000A77AF4EEC77AF1EE10FAA3D86046A8E7B8
:102B40006046BAE76146E5E76046CEE72246494679
:102B50006046BB699847FFF7B2BBC7F810B00022C8
:102B600098ED0C6A331DDFED726AD7F81CB07869F6
:102B700056F8221007EE901A53F82210B8EEE77AB2
:102B800007EE901A51080232F8EEE77A27EE267A1D
:102B90000AEB810E94420BEB810167EEA67A27EED9
:102BA000067A67EE867A8EED007AC1ED007ADFD87C
:102BB0008300D7F810B07B614DE61A46C7F810B015
:102BC00098ED0C6A331DDFED5B6AD7F81CB07869AD
:102BD00036F9221007EE101A33F9221007EE901A78
:102BE000B8EEC77A51080232F8EEE77A27EE267A75
:102BF0000AEB810E94420BEB810167EEA67A27EE79
:102C0000067A67EE867A8EED007AC1ED007ADFD81B
:102C10008300D7F810B07B6134E5F0EE675AFEEE22
:102C2000E45A15EE900A34E7F0EE675AFEEEE45AE5
:102C300015EE901A6EE7F0EE675AFEEEE45A15EEC6
:102C4000900A3AE7F0EE675AFEEEE45A15EE900A63
:102C50004BE767EEA57AFDEEE77A17EE900A00B231
:102C600032E567EEA57AFDEEE77A17EE900A00B23C
:102C70003FE5F0EE675AFEEEE05A15EE901A4CE68C
:102C8000F0EE675AFEEEE05A15EE900A30E6F0EEEE
:102C9000675AFEEEE05A15EE900AFDE5F0EE675A2F
:102CA000FEEEE05A15EE900A0AE667EEA57AFDEE12
:102CB000E77A17EE901A09B24AE567EEA57AFDEEBB
:102CC000E77A17EE900A00B22CE5F0EE675AFEEEB6
:102CD000E45A15EE902A1FE467EEA57AFDEEE77A36
:102CE00017EE902A12B2FFF731BBF0EE675AFEEEF4
:102CF000E45A15EE902AFFF7FDBBF0EE675AFEEEA0
:102D0000E05A15EE902AFFF79BBBF0EE675AFEEEF5
:102D1000E05A15EE902AFFF780BB67EEA57AFDEE2C
:102D2000E77A17EE902A12B2FFF724BB82FF7F00EA
:102D300000000030000000387E0080FF30B5184CE5
:102D4000154685B0046004F1080EEC460FC98EE804
:102D50000F00D4ED047AF5EEC07A8CE80F00F1EEA6
:102D600010FA1ADDB7EE006A94ED057A27EE277A9D
:102D7000C6EE276A84ED0D7AC4ED0C6A6DB120466B
:102D800040F8185F01F068FE064903690020064A12
:102D90002162A262E36005B030BD012005B030BD04
:102DA000E8060024002000300000003000680830F1
:102DB000704700BFB1F5807F03680A4628BF4FF413
:102DC0008072B1F5807F9A6094BF00200120704727
:102DD0000068183001F0A0BE70B504688AB0A3691D
:102DE000E160CBB104F11805284601F035FE8446B8
:102DF000EE46E668BCE80F00AEE80F00BCE80F0046
:102E0000AEE80F009CE803008EE803006946284600
:102E1000049601F029FDF8B9E069D8B104F11C0568
:102E2000284601F019FE8446EE46E468BCE80F002F
:102E3000AEE80F00BCE80F00AEE80F009CE803000E
:102E40008EE8030069462846049401F00DFD003821
:102E500018BF01200AB070BD01200AB070BD00BFCC
:102E600030B5046883B00D46E3694BB1A368002018
:102E7000E26A616A9B00009004F11C0001F0EEFD23
:102E8000A3680748A26A9B00216A009004F1180019
:102E900001F0E4FD0020C4E9005003B030BD00BFE4
:102EA0008121000810B4074B4FF07E5130240022DE
:102EB000032019619C60D8605DF8044B5961C3E937
:102EC00006227047E806002430B585B00446002588
:102ED000ADF80C10ADF80820ADF8043001F0E2FEBA
:102EE000BDF80C204FF48073206004F11800228399
:102EF000BDF808206383E383A283257100F090FC72
:102F000004F11C0000F08CFC9FED060A019904F10D
:102F1000080000F009F84FF6FF736562238405B0DE
:102F200030BD00BF0000000070B5044682B0C1F3A0
:102F30000726CDB2ADF8041001F0B4FE4FF4807254
:102F40004FF001232060A01DA571A280E671A3604F
:102F500002B0BDE8704000F063BC00BF00B583B0B4
:102F6000082AADF804104FF00301ADF8003041809D
:102F7000BDF800C0BDF81010BDF804E0A0F804C012
:102F800001811146BDF814C028BF0821042A9DF80C
:102F90001830A0F800E0A0F80CC0017408D8022A8C
:102FA0000ED801D10122C280437403B05DF804FB46
:102FB00001224374C2804281C28103B05DF804FBE8
:102FC00001224374C280428103B05DF804FB00BF5C
:102FD0002DE9F04FDFF81C8300258DB0C04C037045
:102FE00008F140034260074601920E46202229461E
:102FF0004046C4F86831C4F86481CDE90255CDE992
:103000000455CDE90655CDE90855CDE90A550EF030
:103010005DFE2022294604F5A170C4F83151C4F8A0
:103020003551C4F83951C4F83D510EF04FFE019BA3
:1030300084F8485284F830317A68002A6AD02B46E6
:1030400004F59871454606F1100A9E46F01856F8A8
:1030500003B0E2180EF1010ED0F80CC0D0F80490C5
:10306000D0F8088044F803B0C2F80CC04FF0000C50
:10307000C2F80490C2F80880008A25F802CB1082BA
:103080001AF8032001F8012F002A70D07A684FF057
:1030900001001233724584F84802D7D84FF48022D9
:1030A00090489DF8043008214FF000084FF00009C7
:1030B000C4F884310023C4E95B020122C4F87431EE
:1030C00084F88031C4E95E2194F84812C4E9648927
:1030D000A9B3C4F89821002284F8813184F888319A
:1030E0003B78C4E96722002B38D00122002001215F
:1030F000013B84F8A421C4E96C01082B30D8DFE837
:1031000013F0BD00C200C700CC00D100D600DB0028
:10311000E100E8009DF804300121C4F87421C4F8EE
:1031200084314FF4802384F880216E4AC4E95B2304
:1031300008230022C4E95E130023C4E964230123A9
:10314000002284F88131002384F888310323C4F8F5
:1031500098313B78C4E96722002BC6D184F8A431AA
:10316000614802F01BFE034638B1FFBEFEE77A68F5
:10317000123372453FF66AAF90E702A95A480293AC
:1031800002F06AFF8246002876D1042240F2FF71E5
:103190000A90CDE9081294F83021002A00F0F3805B
:1031A0004FF006080AEBCA034FEACA0904EB4303CF
:1031B0005B7C072B07D8DFE803F0595C5653504D72
:1031C0004A04072307930FFA8AF6D14406EBC60692
:1031D00004EB490904EB46077500384600F020FB74
:1031E00099F81030042B00F3AA80022B00F3BD8065
:1031F00000F0B98004EB0A03002283F8202114F8C0
:103200001630002B78D0022B00F08A80012B40F082
:10321000B2807B78012B00F0B080002B334B18BFBD
:10322000002305A93048CDE9053802F0E3F900286C
:1032300040F0AC800AF1010A94F830315FFA8AFA62
:10324000534540F2A0802A4B53F82A80AAE7062370
:103250000793B8E705230793B5E704230793B2E77D
:1032600003230793AFE702230793ACE700230793F9
:10327000A9E701230793A6E7FFBEFEE70322402349
:10328000C4E96A236CE707226023C4E96A2367E77D
:103290000F228023C4E96A2362E71F22A023C4E926
:1032A0006A235DE73F22C023C4E96A2358E77F22EF
:1032B000E023C4E96A2353E7FF224FF48073C4E993
:1032C0006A234DE740F2FF124FF49073C4E96A237A
:1032D00046E740F2FF324FF4A073C4E96A233FE7A8
:1032E00020070024002002408C0800240002B025A2
:1032F00020260108004000307B78062B37D0072BB2
:103300003DD0022B4AD0032B4AD0002B4CD0012BAE
:1033100048D0042B4AD0052B254B18BF002380E74B
:103320007B78042B25D0052B2BD08BB3012B31D0F0
:10333000022B31D0032B1F4B18BF002371E703234F
:10334000043504EB0A0B4FF0000925448BF82031BB
:10335000284609F1010900F063FA9BF82031043591
:103360004B45F5DC4BE70123EAE70223E8E7124B84
:1033700057E7124B55E7002353E7114B51E7114B29
:103380004FE7114B4DE70DB0BDE8F08FFFBEFEE7F4
:103390000E4B46E70E4B44E70E4B42E70E4B40E721
:1033A0000E4B3EE70E4B3CE70E4B3AE70E4B38E731
:1033B0000000B84F002090360800900C1000C0109C
:1033C0002000F0148000501D000180210004002A1C
:1033D0000008302E001060320040C03A0080F03EFD
:1033E00000005247000021430000844B38B5094CCF
:1033F00040F2FF724FF0011104F5B675284602F055
:10340000D9FD94F83021D4F864112846BDE838403D
:1034100002F044BB20070024064B0F29D3F8683183
:1034200098BF03EB011333F8123000EE103ABBEEF5
:10343000C80A704720070024214B02689A4200D036
:103440007047204A00232048D2F8D81030B51F4CCE
:1034500041F0200183B0C4F8D001092004F5E875DB
:10346000C4E975034FF48060C2F8D810D2F8D820B0
:103470004FF40061C4E9773094F8480202F020026A
:10348000C4F8E4114FF40051984201922846C4F860
:10349000E811C4E97C33019B14BF00234FF480730F
:1034A000C4F8EC3102F0FEFF08B1FFBEFEE704F500
:1034B000B673C4F8B851C4F8083203B030BD00BFC9
:1034C000002002400044025840000240200700242F
:1034D000014803F05FBB00BFF008002402682DE93B
:1034E000F84F4B4B9A4201D0BDE8F88F494D95F803
:1034F0004832002BF8D095F83031002B77D00024DB
:1035000005F10C0905F5A17605F59877A04613E0BD
:1035100003F0010117F811BCA9F1080000F05CFAF2
:10352000BBF1010F25D895F83031013409F11209AA
:103530000236A2B293422BD917F8012F002AF4D0F9
:10354000D5F864310021327833F81400D5F86831A9
:1035500003EB041323F81200338801339BB233804A
:103560005FFA83FA3A789A42D2D88A46A6F800805F
:10357000D0E7CAF34001A9F1040000F02DFABBF135
:10358000020FCAF38001CED0484600F025FACAE700
:10359000002395F84802204909229842C5F8D831FD
:1035A0004FF48060C5F8D011C5F8D4214FF4006104
:1035B0004FF40052C5F8DC3108BF4FF48073C5F8F2
:1035C000E821C5E9780100221448C5E97B32C5F835
:1035D000F42102F067FF08B1FFBEFEE795F8302145
:1035E000D5F864110E48BDE8F84F02F057BA0A4901
:1035F00009224FF48060C5F8D831C5E974124FF440
:1036000000614FF40052C5E97730C5E97912DAE775
:10361000002002402007002440000240F00800245F
:103620008C080024704700BF10B592B0ADF80410AC
:103630000180C9B2149C0B29C460C0E901233FD0AA
:1036400090F801C0BCF10F0F3AD8022A3FD0032AEC
:1036500002D0012A00D000220E92012B02D0022BB0
:1036600018BF0023022C0F932CD0032C2AD0012C3E
:1036700028D000230A29109327D85C4A02EB812224
:1036800002610A2914D8DFE801F0A39587796B5D00
:103690004F4133250600564BD3F8E01041F48061CA
:1036A000C3F8E010D3F8E03003F480630C930C9B74
:1036B00001230DA9104603FA0CF30D9303F0BCFD92
:1036C00012B010BD0A291094D7D90022D8E71122D0
:1036D0000E92C2E7464BD3F8E01041F40071C3F8F4
:1036E000E010D3F8E03003F400730B930B9BDFE79B
:1036F0003F4BD3F8E01041F48071C3F8E010D3F8E9
:10370000E03003F480730A930A9BD1E7384BD3F877
:10371000E01041F08001C3F8E010D3F8E03003F08E
:1037200080030993099BC3E7314BD3F8E01041F0C4
:103730004001C3F8E010D3F8E03003F040030893F1
:10374000089BB5E72A4BD3F8E01041F02001C3F8FD
:10375000E010D3F8E03003F020030793079BA7E7BE
:10376000234BD3F8E01041F01001C3F8E010D3F878
:10377000E03003F010030693069B99E71C4BD3F847
:10378000E01041F00801C3F8E010D3F8E03003F096
:1037900008030593059B8BE7154BD3F8E01041F028
:1037A0000401C3F8E010D3F8E03003F004030493FD
:1037B000049B7DE70E4BD3F8E01041F00201C3F803
:1037C000E010D3F8E03003F002030393039B6FE7AC
:1037D000074BD3F8E01041F00101C3F8E010D3F833
:1037E000E03003F001030293029B61E700000258FE
:1037F0000044025808B5012143780069994089B214
:1038000003F022FF003818BF012008BD01230A463B
:103810004178006903FA01F189B203F01BBF00BFD0
:103820008378022B30B504468FB037D0032B33D0CA
:10383000012B31D000230A93E378012B2AD0022BED
:1038400028D000230B93002320460C9301F04CFD5D
:103850000546204601F050FD23780990082B13D827
:10386000DFE803F01F3245586B7E91A40500594BE9
:10387000D3F8E02042F48072C3F8E020D3F8E030BF
:1038800003F480730893089B09A9284603F0D4FC2D
:103890000FB030BD0B93D6E70A93CDE711230A93FF
:1038A000CAE74C4B09A92846D3F8E02042F00102B0
:1038B000C3F8E020D3F8E03003F001030093009B4D
:1038C00003F0BAFC0FB030BD424B09A92846D3F82B
:1038D000E02042F00202C3F8E020D3F8E03003F029
:1038E00002030193019B03F0A7FC0FB030BD394BDD
:1038F00009A92846D3F8E02042F00402C3F8E020EA
:10390000D3F8E03003F004030293029B03F094FC2D
:103910000FB030BD2F4B09A92846D3F8E02042F064
:103920000802C3F8E020D3F8E03003F00803039363
:10393000039B03F081FC0FB030BD264B09A928463C
:10394000D3F8E02042F01002C3F8E020D3F8E030D2
:1039500003F010030493049B03F06EFC0FB030BD22
:103960001C4B09A92846D3F8E02042F02002C3F8F6
:10397000E020D3F8E03003F020030593059B03F02B
:103980005BFC0FB030BD134B09A92846D3F8E020EB
:1039900042F04002C3F8E020D3F8E03003F04003E7
:1039A0000693069B03F048FC0FB030BD094B09A9F4
:1039B0002846D3F8E02042F08002C3F8E020D3F894
:1039C000E03003F080030793079B03F035FC0FB052
:1039D00030BD00BF0044025870B506460D4601F0E8
:1039E00083FC0446304601F087FC2A1E014620462F
:1039F00018BF0122BDE8704003F02CBE0023122244
:103A000070B586B0CDE9022304930368032B01D877
:103A100004230593061D841D304601F065FC054610
:103A2000304601F069FC034601A92846019303F0E2
:103A300003FC204601F058FC034620461C4601F0DA
:103A40005BFC01A903462046019303F0F5FB06B099
:103A500070BD00BF634A0368934210B58CB028D094
:103A6000614A934258D0614A934200F09480604A80
:103A7000934201D00CB010BD5E4C5F48D4F8E030EA
:103A800043F00203C4F8E030D4F8E03003F002035E
:103A90000A930A9BFFF7B2FFD4F8F43043F0800397
:103AA000C4F8F430D4F8F43003F080030B930B9B8C
:103AB000E0E7504C5148D4F8E03043F00203C4F83A
:103AC000E030D4F8E03003F002030193019BFFF7EC
:103AD00095FFD4F8E83000221F2043F4001311466C
:103AE000C4F8E830D4F8E83003F400130293029BE2
:103AF000D4F8D83043F00103C4F8D830D4F8D83023
:103B000003F001030393039B02F01AFB1F200CB088
:103B1000BDE8104002F052BB364C3948D4F8E030D2
:103B200043F08003C4F8E030D4F8E03003F08003C1
:103B30000493049BD4F8E03043F00203C4F8E0306F
:103B4000D4F8E03003F002030593059BFFF756FF1E
:103B5000D4F8E8300022212043F480031146C4F851
:103B6000E830D4F8E83003F480030693069BD4F8D9
:103B7000D83043F00103C4F8D830D4F8D83003F07B
:103B800001030793079B02F0DBFA21200CB0BDE88C
:103B9000104002F013BB1B48FFF730FF154B00220B
:103BA0004820D3F8E840114644F40004C3F8E84044
:103BB000D3F8E84004F400040894089CD3F8D840F3
:103BC00044F00104C3F8D840D3F8D83003F001031F
:103BD0000993099B02F0B4FA48200CB0BDE81040EC
:103BE00002F0ECBA0054004000580040005C004075
:103BF000001C005800440258F80B002470090024EF
:103C0000480A0024200B00242DE9F0431A4B87B00A
:103C100000254FF010099E46EC46184BFF22E04667
:103C200067461A700EF118060EF13004CDE9005502
:103C3000CDE90255ADF80090BCE80F00CDE9045580
:103C4000AEE80F009CE803000095ADF800908EE808
:103C50000300B8E80F000FC69CE803000095ADF81C
:103C6000009086E803000FCF0FC49CE8030084E8AF
:103C7000030007B0BDE8F083180000246C0900249D
:103C800010B5EFF3108472B6084B1A78120602D5FD
:103C900004B962B610BD1B78D82205485BB202FB9E
:103CA0000300143002F076FFF2E700BF6C09002435
:103CB00070090024014804F065BB00BFFC09002422
:103CC000014804F05FBB00BFD40A0024014804F09F
:103CD00059BB00BFAC0B00242DE9F0430F68D8247A
:103CE0003F4D85B007FB04F4032F05EB040303608D
:103CF00040DCCB680E46012B3CD84DD04FF0D808A5
:103D0000B646DFF8FC9008FB0758BEE80F00C44633
:103D1000ACE80F00DEF800300DF1100ECCF80030EA
:103D2000D8F808C099E80F000EE90F000EEB8703E2
:103D3000BCF1010F53F8103CC8F88C3031D0BCF105
:103D4000020F42D0BCF1000F35D0317C8C34D82327
:103D5000002201202C4403FB07534900C3E926023B
:103D6000C3F894102046C3E92822C3E92A2204F0AC
:103D7000FBF818B1012005B0BDE8F08301462046EC
:103D800004F00CFB0028F5D10146204604F030FB7E
:103D9000003818BF0120EEE70B7C103B672BADD934
:103DA000E8E701F01BF90F4B98420CBF0E4B0F4B8D
:103DB000C8F89030C9E701F011F90A4B98420CBFDE
:103DC0000B4B0C4BC8F89030BFE701F007F9054BDF
:103DD00098420CBF084B094BC8F89030B5E700BFBC
:103DE00070090024000E27072D0FB0303211D020AB
:103DF0005F4390608A62E030200BA0101A098010A7
:103E0000C02501082DE9F041D0F8008082B00D46B0
:103E100017461E4608F18C04204604F0BBFA202801
:103E2000FAD1D8F80C3073B96D002046089C33469F
:103E30003A46A9B2009404F0EDF8003818BF01200A
:103E400002B0BDE8F081089B32463946204604F0B6
:103E5000B5F9F2E7044B10221A7483F8E82083F8CE
:103E6000C02183F8982270477009002430B50023E0
:103E700095B04FF48071062204460B93069213937B
:103E8000CDE90C13CDE90E33CDE9113301F0A8F8DB
:103E900007282BD004F1100541F2883206A92846E4
:103EA00005F0B8F828B10123184684F85C3015B045
:103EB00030BD0222022306A92846CDE900231022A4
:103EC0000123CDE9022300224FF48003CDE904232E
:103ED00005224FF0807306926A460F9341F28833B1
:103EE00005F004FA0028DED115B030BD032301200F
:103EF00084F85C3015B030BD70B50023A4B04FF02D
:103F000080724FF480750446ADF806300D93CDE90C
:103F100010320122CDE90E53CDE91223CDE914333D
:103F2000002943D0F02300F1100508AEADF80630AB
:103F3000C02341F2883231462846089305F06AF8DA
:103F400028B10123184684F85C3024B070BD41F2DA
:103F500088320DF10601284605F0C6F80346002810
:103F6000EFD105224FF480711E93284616924FF030
:103F700080721B9321931F9202AA9FED1F7BCDE9B4
:103F80001C13CDE922338DED027B9FED1D7B41F2A9
:103F9000883316A98DED047B9FED1B7B8DED067B91
:103FA00005F0A4F90028CCD124B070BD00F11005B3
:103FB00008AE612341F2883231462846089305F065
:103FC00029F80028BDD141F288320DF106012846BA
:103FD00005F008F90028B4D1BDF80630204623F0DA
:103FE000780343F04003ADF80630FFF73FFF0028A9
:103FF0009ED0A6E7AFF300800000000001000000A3
:10400000100000000100000000000000000040005F
:104010002DE9F04F00234FF4807501264FF0807892
:1040200004462DED028BABB08DF80730139321932E
:10403000299314950E96CDF85C80CDE91533CDE922
:104040001863CDE91A33CDE92253CDE92433CDE904
:10405000273306231C9300F0C3FF072808D004F180
:10406000100741F288321CA9384604F0D3FF40B152
:104070000123184684F85C302BB0BDEC028BBDE800
:10408000F08F4FF0020A4FF0020B4FF0050941F29A
:10409000883308AA1CA93846CDF89480CDF87090D2
:1040A0009FED2D8BCDE908AB4FF0000A4FF4800B4C
:1040B0008DED0A8BCDE90CAB05F018F90028D7D1AE
:1040C00041F2883238460EA904F0A4FF0028CFD16F
:1040D000402341F288320DF1070138468DF8073050
:1040E00005F002F80028C3D141F288330EA902AAD4
:1040F0003846CDF83890CDF85C809FED197B8DED7A
:10410000048BCDE906AB8DED027B05F0EFF803469D
:104110000028ADD1CDF870904FF00109CDF8948012
:104120004FF00008219308AA29931CA9384622952C
:10413000CDE92333CDE9273341F288338DED0A8B66
:10414000CDE90CABCDE9088905F0D0F8002893D073
:10415000304684F85C608FE710000000010000002A
:1041600040000000400000002DE9F043624CA3B085
:104170000D46046000F034FF072800F0A98028688D
:1041800023466968AA6807C31E46AB8926F8043B24
:104190003046257B677B04F01FFFE0B9574B012DAC
:1041A0004FF00108E061236114BF4FF480134FF416
:1041B0000003C4E9058893FAA3F3B3FA83F34FF439
:1041C0008079013BC4F82490C4E90B003046236297
:1041D00004F096FE38B10122134684F85C2018469C
:1041E00023B0BDE8F08366230B90139041F2883230
:1041F00006A90693CDE90C90CDE90E00CDE911009A
:10420000304604F007FF0028E5D1992341F28832B7
:1042100006A93046069304F0FDFE0028DBD10523F5
:104220001C9019906A4614934FF08073219014A942
:104230001D9341F288339FED2A7BCDE91A90CDE999
:104240001F008DED007B9FED287B30468DED027BBE
:104250009FED277B8DED047B05F048F80028BAD14F
:1042600029462046FFF748FE0028B4D12046FFF734
:10427000CFFE03460028AED1002FB0D118933046B0
:104280000027002606AA14A9CDF86890CDE91F33AF
:10429000EB2314934FF440631B934FF40053179395
:1042A0004FF440431C93A0231693062319934FF019
:1042B000805321934FF04073CDE906671D9305F0BD
:1042C0008DF8034600288AD0434684F85C8086E750
:1042D00001230322184684F85C2023B0BDE8F08354
:1042E00000000000010000001000000001000000BC
:1042F0000000000000004000D00C002400500052DC
:104300002DE9F04F8FB0414B0024026800AF9A4274
:104310007C63C7E90944C7E90B4403D03C37BD4679
:10432000BDE8F08F3A4B40F609213A48EB46D3F806
:10433000D42007F11C0607F1220A4FF0020942F4CB
:1043400080424FF00308C3F8D420D3F8D42002F4FD
:104350008042BA60BA68D3F8E02042F04002C3F865
:10436000E020D3F8E02002F04002FA60FA68D3F8C7
:10437000E02042F02002C3F8E020D3F8E02002F071
:1043800020023A613A69D3F8E02042F01002C3F803
:10439000E020D3F8E02002F010027A617A69D3F8C5
:1043A000E02042F00202C3F8E020D3F8E030F861E8
:1043B00003F002033984BB61174B7B60BB697B68E8
:1043C00053F8040F7B6000F08FFF7B680546186888
:1043D00000F092FF16F8013B786207F124012846AD
:1043E000C7F830807B63C7E90A9402F025FF564581
:1043F000E5D100225C20114601F0A2FE5C2001F014
:10440000DDFE3C37DD46BD46BDE8F08F0050005272
:10441000004402580A0A09092C0D0024114B0268B5
:104420009A4200D07047104A70B5D2F8D4300F4C81
:1044300023F4804304F11806C2F8D43054F8040F72
:1044400000F052FF0546206800F056FF014628465E
:1044500003F032F8B442F1D15C20BDE8704001F0C5
:10446000BBBE00BF00500052004402582C0D002477
:10447000014805F03FB800BFE00C0024084B1A1DAE
:10448000981D03F1080110B49C1C9A6603F10A02FE
:10449000C3E91834C3E91B015DF8044B5A67704740
:1044A000D00C002438B5036871B9026A00F1280500
:1044B00000F5AC74012A0CBF002140218BBB1D4BC1
:1044C0005722C0F858310DE0426A00F1C00500F5EE
:1044D000E874012A0CBF00214021EBB1164B5A228F
:1044E000C0F8D03100232046C4E901214FF48052A6
:1044F0004FF48061636262614FF48042C4E903312A
:104500004FF48073C4E906234FF40033236201F0B3
:10451000C9FF58B1FFBEFEE7084B5822C0F8D031A2
:10452000E0E7074B5922C0F85831DBE7C5E92044E2
:10453000A56338BD10000240700002402800024010
:10454000580002402DE9F043821D05468BB0031D43
:1045500005F10A010830CDE9052305F10C02AB692C
:10456000CDE907010992002B3DD0EB69B3FA83F83E
:104570004FEA58180123022205AE0AAF4FF0060990
:104580000393CDE9012356F8044B2B79227893420B
:1045900016D02B68F3B1012B02D1F2B10A23049398
:1045A000204600F0A9FE03462046009300F09CFE42
:1045B000694602F041FEBE42E5D10BB0BDE8F08392
:1045C000697963789942E4D1B8F1000FF3D02B6890
:1045D000002BE0D1CDF81090E2E76378022B14BFF6
:1045E0000A230823DBE74FF00108C3E7534A0368B7
:1045F000934230B505468BB055D02032934252D00D
:104600004F4A934204D02032934201D00BB030BDC8
:104610004C4C4D48D4F8E03043F00103C4F8E0308E
:10462000D4F8E03003F001030593059BD4F8E030A3
:1046300043F00803C4F8E030D4F8E03003F0080396
:104640000693069BD4F8E03043F04003C4F8E03012
:10465000D4F8E03003F040030793079BD4F8F03020
:1046600043F40003C4F8F030D4F8F03003F400034E
:104670000893089BFFF766FFD4F8D830296843F009
:1046800001032F4A3048C4F8D830891AD4F8D830FA
:1046900018BF012103F001030993099B0BB0BDE88A
:1046A0003040FFF7FFBE274C2848D4F8E03043F0F5
:1046B0000103C4F8E030D4F8E03003F001030093C4
:1046C000009BD4F8E03043F01003C4F8E030D4F895
:1046D000E03003F010030193019BD4F8E03043F085
:1046E0004003C4F8E030D4F8E03003F04003029314
:1046F000029BD4F8F03043F48003C4F8F030D4F8CF
:10470000F03003F480030393039BFFF71BFFD4F8FF
:10471000D830296843F00103084A0C48C4F8D8305F
:10472000891AD4F8D83018BF012103F0010304938B
:10473000049B0BB0BDE83040FFF7B4BE0458014005
:10474000045C014000440258A40F0024480D0024DA
:10475000014802F01FBA00BFA00E0024014802F079
:1047600019BA00BF180F0024014802F013BA00BFA5
:10477000FC100024014802F00DBA00BF741100249F
:104780001A4A0368934210B40BD02032934208D0E7
:10479000174A934216D02032934213D05DF8044B4F
:1047A0007047144B0022D3F85442C3F85822002C0F
:1047B000F4D0D3F84802D3E9931223465DF8044BB2
:1047C000520818470B4B0022D3F8B044C3F8B42466
:1047D000002CE3D0D3F8AC24D3F8A814D3F8A40465
:1047E000520823465DF8044B184700BF04580140A7
:1047F000045C0140480D0024184A0368934210B439
:104800000BD02032934208D0154A934217D0203261
:10481000934214D05DF8044B7047124BD3E99424B3
:104820005208C3F85822002CF4D0D3E99201234651
:1048300001EB820100EB82005DF8044B1847094B45
:10484000D3F8AC24D3F8B0445208C3F8B424002CF5
:10485000E0D0D3F8A814D3F8A404E8E70458014042
:10486000045C0140480D00242DE9F04F0C684FF422
:104870001776754F87B004FB06F6012C07EB060A86
:10488000C0F800A000F3A0800D468E464FF000084F
:10489000D44669A3D3E9002369A1D1E90001CDE998
:1048A000022306ABCAF8508203EB8403CDE904016E
:1048B00053F810BC53F8083CCAE992880193BEE84B
:1048C0000F00ACE80F00BEE80F00ACE80F00019B42
:1048D0009EE80300CAF828B0CAF8C0308CE803008C
:1048E0002B69042B0CD8DFE803F0737D879103005C
:1048F0004FF41773554A03FB04739A64C3F8E0201E
:10490000AA692B6A002A43D0002B4FF4177308BF03
:10491000022203FB047318BF0322DA6201221A6326
:10492000EA696B6A002A40D1191E4FF4177318BF49
:10493000012103FB0473C3E931126B69022B05D813
:10494000434A12F80380434A52F823904FF41773F6
:1049500006F128004246494603FB0474002338440C
:1049600063646363E365C4F8DC30C4F8CC30C4F836
:10497000F430C4E90F33C4E91533C4E93533C4E96D
:104980003B33022306F058FE002849D0FFBEFEE765
:10499000191E4FF4177318BF012103FB0473C3E9F9
:1049A0000B12EA696B6A002ABED0002B4FF4177312
:1049B00008BF022203FB047318BF0322C3F8C420FC
:1049C0000122C3F8C820B8E7012007B0BDE8F08F86
:1049D0004FF417734FF4FA5203FB04739A64C3F84D
:1049E000E0208DE74FF417734FF47A5203FB047302
:1049F0009A64C3F8E02083E74FF417734FF4FA4248
:104A000003FB04739A64C3F8E02079E74FF417734B
:104A10004BF6803203FB04739A64C3F8E0206FE71F
:104A200006F1C000022342464946384406F004FE1F
:104A30000028CAD0FFBEFEE704580140045C0140D4
:104A400024580140245C0140480D002400770100F7
:104A500060260108642601080068704770B5046884
:104A600082B015460E46C4F85032C4E99212069A36
:104A7000C4F85422A269012A26D0626A012A9AB295
:104A800011D0294604F1C000019206F091FE236A7C
:104A9000019A012B10D0294604F1280006F088FE67
:104AA000002002B070BD04F1C000019206F012FFB8
:104AB000236A019A012BEED1314604F1280006F059
:104AC00009FF002002B070BD226A012A9AB211D0FB
:104AD000294604F12800019206F06AFE636A019AF1
:104AE000012B10D0294604F1C00006F061FE002021
:104AF00002B070BD04F12800019206F0EBFE636A7B
:104B0000019A012BEED1314604F1C00006F0E2FE1D
:104B1000002002B070BD00BF03681B69042B05D8DC
:104B2000044A02EB830393ED000A70479FED020AEB
:104B3000704700BF7026010800803B470368D3F828
:104B400058027047704700BF08B500F0DDFCBDE8B3
:104B5000084001F0BDBB00BF064808B503680BB1B3
:104B600002F07CFD044803681BB1BDE8084003F077
:104B70006BBC08BD1016002408120024064808B5B6
:104B800003680BB102F06AFD044803681BB1BDE87D
:104B9000084003F059BC08BD101600240812002478
:104BA000064808B503680BB102F058FD04480368D5
:104BB0001BB1BDE8084003F047BC08BD1016002437
:104BC00008120024364BDA6A520062D59A6A9A6A51
:104BD0009A6A9B6A180600D500BE314B9B6A9906FB
:104BE00000D500BE2E4B9B6ADA0600D500BE2C4BCA
:104BF0009B6A1B0700D500BE294B9B6A980700D50E
:104C000000BE274B9B6AD90700D500BE244B9B6A88
:104C10001A0400D500BE224B9B6A9B0400D500BE3F
:104C20001F4B9B6AD80400D500BE1D4B9B6A19051B
:104C300000D500BE1A4B9B6A5A0500D500BE184B22
:104C40009B6A9B0500D500BE154B9B6AD80500D515
:104C500000BE134B9B6A990100D500BE104B9B6AA6
:104C6000DA0100D500BE0E4B9B6A1B0300D500BEC7
:104C70000B4B9B6A580300D500BE094B9B6A9903F6
:104C800000D500BE064B9B6ADA0306D400BE00BE08
:104C9000FEE7DB6A9B07FAD5F8E700BEF6E700BF40
:104CA00000ED00E000F03CBC00F040BC0A4B9B680B
:104CB00003F17843B3F5003F0BD3084B986848B134
:104CC0009868012806D09868022803D09B680320C2
:104CD00070470120704700BF00ED00E00000803801
:104CE0002DE9F041CEB004464C2200210AA80CF078
:104CF000EDFF2022002102A80CF0E8FFBC220021D9
:104D00001EA80CF0E3FF022004F012F82368012B28
:104D10004FF0000354D0534A02250193C820D16AB2
:104D2000514B21F00101D162D26A02F001020192DD
:104D30009A6942F440429A619B6903F440430193AB
:104D4000019B494A93699B04FCD5484902240022EF
:104D500001268B6A04274FF0080823F0030323433E
:104D60008B62052316900AA818934FF4803310968F
:104D7000179419941597CDF86880CDE91B2221224C
:104D8000CDE91344CDE90A2304F0BCFC00B1FEE7F1
:104D90003F220323294602A8CDE90223002208234B
:104DA000CDE9042340224023CDE9062340234FF4DC
:104DB0008062CDE9082304F0D3FF0346B8B1FEE7D3
:104DC000294A04250093F0209169264B41F4404183
:104DD0009161926902F440420092DA6A42F0010263
:104DE000DA62DB6A03F001030093009BA9E720224B
:104DF0004FF4805125934FF440152B9280222D9330
:104E00001EA83093269135914FF4807124923492EC
:104E10000C223394439140F2271120921022CDF8B6
:104E200084802A971F96CDE92E34CDE93B334FF489
:104E30008033CDE922463193002446930623CDE901
:104E40003E4527934FF48063094C2C931E94CDE983
:104E5000281205F0E1F900B1FEE703F08FFF4EB034
:104E6000BDE8F08100040058004802580044025890
:104E70000F130F0370B584B0012401F0D7F94FF47C
:104E800080764FF04052194B68460025ADF800403F
:104E90000396CDE9012301F0E7F919224FF04043D1
:104EA00068468DF8082001938DF80F40ADF80D602D
:104EB0008DF801408DF80A5001F0D6F902230B223B
:104EC00068468DF80F508DF801304FF062538DF821
:104ED00008200193ADF80D408DF80A4001F0C4F9A7
:104EE000042001F0B1F904B070BD00BF0E00010351
:104EF00030B50D46044685B0D1E9000184E80300D1
:104F000000F0D2FAAB79A3B30AF084F8FEF77CFE86
:104F100008F0F4FC09F080FD2B798BBB6B799BB119
:104F2000BFF34F8FBFF36F8F2A4B0022C3F850227D
:104F3000BFF34F8FBFF36F8F5A6942F400325A614B
:104F4000BFF34F8FBFF36F8F4FF0FF32002300246A
:104F500000256946204802928DF80C30CDE90045C5
:104F600009F0ECF81C4809F051F908F0F7F805B021
:104F700030BD2046FFF7B4FE2046FFF77BFFC3E7B6
:104F8000144C0023C4F88430BFF34F8FD4F8801042
:104F900043F6E07EC1F34E3CC1F3C9014FEA4C1C1D
:104FA0000CEA0E000B4640EA8372013BC4F8602213
:104FB0005A1CF8D1ACF1200C1CF1200FF0D1BFF33A
:104FC0004F8F636943F480336361BFF34F8FBFF347
:104FD0006F8FA3E700ED00E00012002404F0F0BFA3
:104FE0001C4B9B6803F17842B2F5003F25D3B3F523
:104FF000803F20D303F16042B2F5003F1FD303F19D
:105000005C42B2F5002F1CD303F17042B2F5902F31
:1050100019D303F14842B2F5803F16D303F1804221
:10502000B2F1806F13D303F1E043B3F5000F2CBF4F
:105030000820072070470120704700207047022099
:1050400070470320704704207047052070470620F2
:10505000704700BF00ED00E003480023034A044905
:1050600003600CF0EDBD00BF00120024000000241E
:10507000454B000810B4204C0022204B83B0D4F8DC
:1050800088101F4841F47001C4F8881019681D4C3D
:1050900041F0010119601A61196808401A49186045
:1050A0009A61DA611A629A62DA621A635A639A63DF
:1050B000DA631A645A64186820F4802018601A664B
:1050C000D3F8DC2042F06042C3F8DC20D3F8DC30B7
:1050D0000193019B23681940B1F1005F03D20B4B90
:1050E0000122C3F80821044B4FF000629A6003B01C
:1050F0005DF8044B704700BF00ED00E0004402582B
:105100007FEDF6EA0010005C0000FFFF0080005118
:1051100000F57171D0F8040407F008BCC1EBC103BD
:1051200000EB8303D0F80404D3F8082207F02CBC6A
:10513000C1EBC10300EB8303D0F804049A6C07F0C1
:1051400061BC00BFD0F8040407F000BDC16810B511
:10515000044619B1022900D0FEE70121D4F8040465
:1051600007F0DEFCD4F80404BDE8104007F0B0BC42
:1051700010B50446D0F8040407F0D6FC2268D2F833
:10518000003E43F00103C2F8003E236A23B1034A04
:10519000136943F00603136110BD00BF00ED00E08A
:1051A000D0F8040407F0CABCD0F8040407F0DEBC51
:1051B000D0F8040407F0D8BCD0F8040407F0D8BC39
:1051C000D0F8040407F0D6BC9446D0F898021A46EA
:1051D00008B5634603F09CFC032802D8024B185C18
:1051E00008BD022008BD00BF94260108D0F898022F
:1051F00008B503F01BFD032802D8024B185C08BD5C
:10520000022008BD94260108D0F8980208B503F0E2
:1052100051FD032802D8024B185C08BD022008BDCE
:10522000942601080A06D0F8983206D4C1EBC101D1
:1052300003EB810191F8FE01704701F07F01C1EBA2
:10524000C10103EB810191F83E007047D0F898024C
:1052500008B503F047FC032802D8024B185C08BDD0
:10526000022008BD94260108D0F8980208B503F082
:10527000B5FC032802D8024B185C08BD022008BD0B
:1052800094260108D0F8980208B503F07FFC0328A3
:1052900002D8024B185C08BD022008BD9426010804
:1052A000D0F8C00207F014BFD0F8C00207F028BF42
:1052B000D0F8C00207F030BF704700BFD0F8C0027E
:1052C00007F016BFD0F8C00207F016BFD0F8D00321
:1052D00008B502F083FD032802D8024B185C08BD14
:1052E000022008BD98260108024B027853F82200DC
:1052F000704700BFBC260108024B427833F8120009
:10530000704700BF9C2601088CB00A2814D8DFE83B
:1053100000F01523313F4D5B6977859306004D4BB7
:10532000D3F8E02042F48062C3F8E020D3F8E03004
:1053300003F480630B930B9B0CB07047454BD3F881
:10534000E02042F00102C3F8E020D3F8E03003F09F
:1053500001030193019BEFE73E4BD3F8E02042F0BD
:105360000202C3F8E020D3F8E03003F00203029316
:10537000029BE1E7374BD3F8E02042F00402C3F888
:10538000E020D3F8E03003F004030393039BD3E75A
:10539000304BD3F8E02042F00802C3F8E020D3F805
:1053A000E03003F008030493049BC5E7294BD3F8CE
:1053B000E02042F01002C3F8E020D3F8E03003F020
:1053C00010030593059BB7E7224BD3F8E02042F08A
:1053D0002002C3F8E020D3F8E03003F02003069366
:1053E000069BA9E71B4BD3F8E02042F04002C3F82C
:1053F000E020D3F8E03003F040030793079B9BE7DE
:10540000144BD3F8E02042F08002C3F8E020D3F838
:10541000E03003F080030893089B8DE70D4BD3F831
:10542000E02042F48072C3F8E020D3F8E03003F4C7
:1054300080730993099B7FE7064BD3F8E02042F481
:105440000072C3F8E020D3F8E03003F400730A934D
:105450000A9B71E700440258704700BF0F4B1B784E
:105460000BB90120704710B504464FF47A700C4A0E
:10547000B0FBF3F31068B0FBF3F000F0C1FE0F2CAB
:1054800000D808B1012010BD002221464FF0FF30A6
:1054900000F056FE034B00201C6010BD6800002485
:1054A000600000246C00002438B50320124D00F089
:1054B00035FE124C04F0B4FB114A12499369C3F350
:1054C0000323CB5C03F01F0320FA03F30E202B60B1
:1054D000926902F00F028A5C02F01F02D34023603F
:1054E000FFF7BCFF10B10124204638BD0446FFF78A
:1054F000B3FF204638BD00BF6000002464000024D4
:105500000044025884260108034A044B11681B78A2
:105510000B441360704700BFD418002468000024B7
:10552000014B1868704700BFD418002438B50446F2
:10553000FFF7F6FF0546631C02D0044B1B781C44A2
:10554000FFF7EEFF431BA342FAD338BD68000024E7
:10555000014B1868000C70470010005C704700BFDA
:10556000806B08B5FFF7FAFF08BD00BF836B5A6D6B
:1055700012F0500F5A6D10B51DD1196842F4007227
:105580005A650A6812F0080FCA681BD012F4406FFF
:105590000DD1CA6894040AD45A6D22F480725A65F7
:1055A0005A6DD10403D45A6D42F001025A6518466F
:1055B000FDF794FF10BDD2060AD4DB6CBDE81040A5
:1055C000DB6C18479007E7D01846FDF787FFF1E737
:1055D0001846FEF727F810BD806B08B5436D43F001
:1055E00040034365836D43F004038365FEF71AF8B7
:1055F00008BD00BFF0B5002283B0019290F85020A2
:10560000012A00F01C81034601201A6883F850002B
:105610009468640700F18A800C68C4F31305002DB8
:1056200040F08F80C4F38464A0404D684FF01F0E9B
:10563000D6694FEA951C30430CF00C0CD06105F094
:105640001F0002F1300584400EFA00FE5CF80500F0
:1056500020EA0E0004434CF80540906840076ED4E1
:10566000956815F0080547D10C68072002F114066B
:10567000B94F4FEAD45CC4F304540CF0040C00FAA4
:1056800004FE886800FA04F45CF8060020EA0E00C4
:1056900020434CF80600386800F07040B0F1805F9D
:1056A00000F0C580D068D668C70600F1E880C6F370
:1056B00082064869760000FA06F60F69042F00F0AA
:1056C000C18002F16004086854F827C000F0F84077
:1056D0000CF0004C40EA0C00304344F82700487EB0
:1056E0000E69012854F8260008BF4FF0004520F04D
:1056F0000040054344F826509068C40714D4CE688F
:10570000086806F01807954CD2F8C050FC40C0F36A
:105710001307044025EA07052C43C2F8C040904C0B
:10572000A64246D0002816DB002003E05A6D42F066
:1057300020025A65002283F8502003B0F0BD906823
:10574000DAE794FAA4F5B5FA85F5C4F3846405F0B4
:105750001F05A84069E783498A4200F0B68001F539
:1057600080718A4200F0B1807F4D804CA968A468A6
:1057700001F0E076E44304F00104002C00F0B48072
:105780007B4CA04200F0FC807A4CA04200F01A81D1
:10579000794CA042C8D14902C6D474498A42C3D1C7
:1057A000AA68002022F0E072324342F48002AA602C
:1057B000C0E7002F6AD090FAA0F4B4FA84F4013460
:1057C00004F01F04092C00F2A48090FAA0F4B4FAAB
:1057D00084F490FAA0F5B5FA85F501340126013577
:1057E000A40605F01F0504F0F84406FA05F52C435D
:1057F00090FAA0F0B0FA80F0304400F01F0000EB07
:10580000400000052043C60D02F11405C0F304500A
:10581000072406F0040604FA00F7745924EA070482
:105820008F6807FA00F02043705108687AE7D6685D
:105830004869C6F38206760000FA06F63DE70220C4
:1058400003B0F0BD106E0C6800F0F840A506B0EB98
:10585000846F30D0506E00F0F840854226D0906EB4
:1058600000F0F84085422BD0D06E00F0F840854221
:105870007FF442AFD06E20F00040D0663CE776085F
:10588000486906F0080600FA06F616E7800E441C82
:1058900004F01F06092E2DD8A406012004F0F844B8
:1058A000B040044306EB46000005ABE7506E20F025
:1058B00000405066D3E7106E20F000401066C9E744
:1058C000906E20F000409066CEE7264C2B4D04F5FC
:1058D0008074A96854F8F86CA468344301F0E07649
:1058E000E44304F0010448E75A6D012042F020022D
:1058F0005A651FE706EB4600A50601241E3805F091
:10590000F84504FA06F60005354340F000702843D8
:1059100079E790FAA0F5B5FA85F590FAA0F4B4FA13
:1059200084F4013501260134AD0604F01F0405F0AE
:10593000F84506FA04F4254390FAA0F4B4FA84F486
:10594000344404F01F0404EB4404A4F11E000005D9
:1059500040F00070DBE700BF0010005CFFFF0F00AD
:105960000000FF4700200240006302580060025818
:10597000000084CB000052C70000B8CF00230240D3
:1059800008023FF5D1AE17498A427FF4CDAE164AE0
:10599000A9681268154821F0E07192093143A0FB13
:1059A000020241F400019209A96052000192019A99
:1059B000002A3FF4B9AE019A013A0192019A002AF5
:1059C000F9D1B1E611F080707FF4AEAE05498A429C
:1059D0007FF4AAAEAA6822F0E072324342F08072ED
:1059E000AA60A7E60060025860000024632D3E050F
:1059F00003689A68D20701D5002070479968214A48
:105A0000114270B5044608D0636D012043F01003C5
:105A10006365A36D0343A36570BD99681A4A0A4084
:105A200042F001029A60FFF77BFD2368174A0546A2
:105A300093421ED002F5807293421AD0144A9268A3
:105A4000114E0AE09A68324042F001029A60FFF774
:105A500067FD401B0228D7D823681A68D2070FD4E5
:105A60009A68D107EED5FFF75BFD401B0228F3D9FA
:105A7000CAE7084A9268D006E2D0074A9342DFD1CB
:105A8000002070BD3F000080C0FFFF7F002002406B
:105A90000063025800230240002102402DE9F0413A
:105AA0003A4D044600680F461646A84219D0384BB6
:105AB000984216D0374DAB688068420716D494F8E8
:105AC0005020012A12D003F01F080122B8F1090F5B
:105AD00084F850200DD90023012084F85030BDE80F
